8=FIX.4.4|9=108|35=A|34=1|49=jcorderop|52=20220627-11:33:26.868|56=LMXBDM|98=0|108=30|141=Y|553=jcorderop|554=lmax4trading_|10=160|
8=FIX.4.4|9=76|35=A|49=LMXBDM|56=jcorderop|34=1|52=20220627-11:33:26.888|98=0|108=30|141=Y|10=201|
8=FIX.4.4|9=58|35=0|49=LMXBDM|56=jcorderop|34=2|52=20220627-11:33:56.888|10=118|
8=FIX.4.4|9=58|35=0|34=2|49=jcorderop|52=20220627-11:33:56.936|56=LMXBDM|10=112|
8=FIX.4.4|9=58|35=0|49=LMXBDM|56=jcorderop|34=3|52=20220627-11:34:26.888|10=117|
8=FIX.4.4|9=58|35=0|34=3|49=jcorderop|52=20220627-11:34:26.945|56=LMXBDM|10=111|
8=FIX.4.4|9=58|35=0|49=LMXBDM|56=jcorderop|34=4|52=20220627-11:34:56.889|10=122|
8=FIX.4.4|9=58|35=0|34=4|49=jcorderop|52=20220627-11:34:56.942|56=LMXBDM|10=112|
8=FIX.4.4|9=58|35=0|49=LMXBDM|56=jcorderop|34=5|52=20220627-11:35:26.890|10=113|
8=FIX.4.4|9=58|35=0|34=5|49=jcorderop|52=20220627-11:35:26.937|56=LMXBDM|10=115|
8=FIX.4.4|9=58|35=0|49=LMXBDM|56=jcorderop|34=6|52=20220627-11:35:56.891|10=118|
8=FIX.4.4|9=58|35=0|34=6|49=jcorderop|52=20220627-11:35:56.953|56=LMXBDM|10=117|
8=FIX.4.4|9=58|35=0|49=LMXBDM|56=jcorderop|34=7|52=20220627-11:36:26.892|10=118|
8=FIX.4.4|9=58|35=0|34=7|49=jcorderop|52=20220627-11:36:26.950|56=LMXBDM|10=113|
8=FIX.4.4|9=132|35=V|34=8|49=jcorderop|52=20220627-11:36:36.019|56=LMXBDM|262=100934|263=1|264=0|265=0|266=Y|146=1|48=100934|22=8|267=2|269=0|269=1|10=008|
8=FIX.4.4|9=170|35=W|49=LMXBDM|56=jcorderop|34=8|52=20220627-11:36:36.083|262=100934|48=100934|22=8|268=2|269=0|270=21346.69|271=5|272=20220627|273=11:36:35.946|269=1|270=21353.82|271=5|10=106|
8=FIX.4.4|9=170|35=W|49=LMXBDM|56=jcorderop|34=9|52=20220627-11:36:37.083|262=100934|48=100934|22=8|268=2|269=0|270=21347.19|271=5|272=20220627|273=11:36:37.004|269=1|270=21353.32|271=5|10=086|
8=FIX.4.4|9=171|35=W|49=LMXBDM|56=jcorderop|34=10|52=20220627-11:36:39.185|262=100934|48=100934|22=8|268=2|269=0|270=21345.69|271=5|272=20220627|273=11:36:39.122|269=1|270=21353.32|271=5|10=138|
8=FIX.4.4|9=170|35=W|49=LMXBDM|56=jcorderop|34=11|52=20220627-11:36:41.287|262=100934|48=100934|22=8|268=2|269=0|270=21349.2|271=5|272=20220627|273=11:36:41.240|269=1|270=21353.31|271=5|10=070|
8=FIX.4.4|9=170|35=W|49=LMXBDM|56=jcorderop|34=12|52=20220627-11:36:42.388|262=100934|48=100934|22=8|268=2|269=0|270=21348.2|271=5|272=20220627|273=11:36:42.299|269=1|270=21353.31|271=5|10=088|
8=FIX.4.4|9=170|35=W|49=LMXBDM|56=jcorderop|34=13|52=20220627-11:36:44.489|262=100934|48=100934|22=8|268=2|269=0|270=21348.21|271=5|272=20220627|273=11:36:44.416|269=1|270=21353.8|271=5|10=091|
8=FIX.4.4|9=170|35=W|49=LMXBDM|56=jcorderop|34=14|52=20220627-11:36:46.590|262=100934|48=100934|22=8|268=2|269=0|270=21349.21|271=5|272=20220627|273=11:36:46.533|269=1|270=21353.8|271=5|10=090|
8=FIX.4.4|9=170|35=W|49=LMXBDM|56=jcorderop|34=15|52=20220627-11:36:47.691|262=100934|48=100934|22=8|268=2|269=0|270=21349.21|271=5|272=20220627|273=11:36:47.592|269=1|270=21353.3|271=5|10=095|
8=FIX.4.4|9=170|35=W|49=LMXBDM|56=jcorderop|34=16|52=20220627-11:36:49.792|262=100934|48=100934|22=8|268=2|269=0|270=21348.71|271=5|272=20220627|273=11:36:49.710|269=1|270=21353.8|271=5|10=103|
8=FIX.4.4|9=170|35=W|49=LMXBDM|56=jcorderop|34=17|52=20220627-11:36:50.792|262=100934|48=100934|22=8|268=2|269=0|270=21347.21|271=5|272=20220627|273=11:36:50.768|269=1|270=21353.8|271=5|10=095|
8=FIX.4.4|9=171|35=W|49=LMXBDM|56=jcorderop|34=18|52=20220627-11:36:51.893|262=100934|48=100934|22=8|268=2|269=0|270=21342.26|271=5|272=20220627|273=11:36:51.826|269=1|270=21344.26|271=5|10=144|
8=FIX.4.4|9=171|35=W|49=LMXBDM|56=jcorderop|34=19|52=20220627-11:36:52.893|262=100934|48=100934|22=8|268=2|269=0|270=21344.72|271=5|272=20220627|273=11:36:52.882|269=1|270=21353.29|271=5|10=155|
8=FIX.4.4|9=171|35=W|49=LMXBDM|56=jcorderop|34=20|52=20220627-11:36:53.994|262=100934|48=100934|22=8|268=2|269=0|270=21348.22|271=5|272=20220627|273=11:36:53.940|269=1|270=21353.29|271=5|10=145|
8=FIX.4.4|9=171|35=W|49=LMXBDM|56=jcorderop|34=21|52=20220627-11:36:55.094|262=100934|48=100934|22=8|268=2|269=0|270=21348.24|271=5|272=20220627|273=11:36:54.998|269=1|270=21353.27|271=5|10=153|
8=FIX.4.4|9=171|35=W|49=LMXBDM|56=jcorderop|34=22|52=20220627-11:36:56.095|262=100934|48=100934|22=8|268=2|269=0|270=21349.24|271=5|272=20220627|273=11:36:56.057|269=1|270=21353.27|271=5|10=145|
8=FIX.4.4|9=171|35=W|49=LMXBDM|56=jcorderop|34=23|52=20220627-11:36:59.898|262=100934|48=100934|22=8|268=2|269=0|270=21349.24|271=5|272=20220627|273=11:36:59.870|269=1|270=21353.27|271=5|10=166|
8=FIX.4.4|9=171|35=W|49=LMXBDM|56=jcorderop|34=24|52=20220627-11:37:00.298|262=100934|48=100934|22=8|268=2|269=0|270=21346.26|271=5|272=20220627|273=11:37:00.292|269=1|270=21348.26|271=5|10=135|
8=FIX.4.4|9=171|35=W|49=LMXBDM|56=jcorderop|34=25|52=20220627-11:37:01.399|262=100934|48=100934|22=8|268=2|269=0|270=21346.76|271=5|272=20220627|273=11:37:01.351|269=1|270=21348.76|271=5|10=146|
8=FIX.4.4|9=171|35=W|49=LMXBDM|56=jcorderop|34=26|52=20220627-11:37:02.501|262=100934|48=100934|22=8|268=2|269=0|270=21349.24|271=5|272=20220627|273=11:37:02.410|269=1|270=21353.77|271=5|10=123|
8=FIX.4.4|9=171|35=W|49=LMXBDM|56=jcorderop|34=27|52=20220627-11:37:03.501|262=100934|48=100934|22=8|268=2|269=0|270=21346.01|271=5|272=20220627|273=11:37:03.469|269=1|270=21348.01|271=5|10=123|
8=FIX.4.4|9=171|35=W|49=LMXBDM|56=jcorderop|34=28|52=20220627-11:37:05.602|262=100934|48=100934|22=8|268=2|269=0|270=21345.76|271=5|272=20220627|273=11:37:05.586|269=1|270=21347.76|271=5|10=152|
8=FIX.4.4|9=171|35=W|49=LMXBDM|56=jcorderop|34=29|52=20220627-11:37:06.703|262=100934|48=100934|22=8|268=2|269=0|270=21342.74|271=5|272=20220627|273=11:37:06.643|269=1|270=21346.77|271=5|10=146|
8=FIX.4.4|9=58|35=0|34=9|49=jcorderop|52=20220627-11:37:06.766|56=LMXBDM|10=119|
8=FIX.4.4|9=171|35=W|49=LMXBDM|56=jcorderop|34=30|52=20220627-11:37:07.704|262=100934|48=100934|22=8|268=2|269=0|270=21343.51|271=5|272=20220627|273=11:37:07.699|269=1|270=21345.51|271=5|10=139|
8=FIX.4.4|9=171|35=W|49=LMXBDM|56=jcorderop|34=31|52=20220627-11:37:08.804|262=100934|48=100934|22=8|268=2|269=0|270=21341.24|271=5|272=20220627|273=11:37:08.757|269=1|270=21343.77|271=5|10=142|
8=FIX.4.4|9=171|35=W|49=LMXBDM|56=jcorderop|34=32|52=20220627-11:37:09.905|262=100934|48=100934|22=8|268=2|269=0|270=21343.51|271=5|272=20220627|273=11:37:09.816|269=1|270=21345.51|271=5|10=139|
8=FIX.4.4|9=171|35=W|49=LMXBDM|56=jcorderop|34=33|52=20220627-11:37:10.905|262=100934|48=100934|22=8|268=2|269=0|270=21343.26|271=5|272=20220627|273=11:37:10.875|269=1|270=21345.26|271=5|10=133|
8=FIX.4.4|9=171|35=W|49=LMXBDM|56=jcorderop|34=34|52=20220627-11:37:12.006|262=100934|48=100934|22=8|268=2|269=0|270=21343.51|271=5|272=20220627|273=11:37:11.934|269=1|270=21345.51|271=5|10=121|
8=FIX.4.4|9=171|35=W|49=LMXBDM|56=jcorderop|34=35|52=20220627-11:37:14.107|262=100934|48=100934|22=8|268=2|269=0|270=21344.51|271=5|272=20220627|273=11:37:14.049|269=1|270=21346.51|271=5|10=128|
8=FIX.4.4|9=171|35=W|49=LMXBDM|56=jcorderop|34=36|52=20220627-11:37:18.310|262=100934|48=100934|22=8|268=2|269=0|270=21345.74|271=5|272=20220627|273=11:37:18.282|269=1|270=21352.77|271=5|10=143|
8=FIX.4.4|9=171|35=W|49=LMXBDM|56=jcorderop|34=37|52=20220627-11:37:19.411|262=100934|48=100934|22=8|268=2|269=0|270=21345.26|271=5|272=20220627|273=11:37:19.341|269=1|270=21347.26|271=5|10=139|
8=FIX.4.4|9=171|35=W|49=LMXBDM|56=jcorderop|34=38|52=20220627-11:37:20.411|262=100934|48=100934|22=8|268=2|269=0|270=21344.51|271=5|272=20220627|273=11:37:20.400|269=1|270=21346.51|271=5|10=114|
8=FIX.4.4|9=171|35=W|49=LMXBDM|56=jcorderop|34=39|52=20220627-11:37:21.513|262=100934|48=100934|22=8|268=2|269=0|270=21344.01|271=5|272=20220627|273=11:37:21.459|269=1|270=21346.01|271=5|10=124|
8=FIX.4.4|9=171|35=W|49=LMXBDM|56=jcorderop|34=40|52=20220627-11:37:22.614|262=100934|48=100934|22=8|268=2|269=0|270=21344.76|271=5|272=20220627|273=11:37:22.518|269=1|270=21346.76|271=5|10=140|
8=FIX.4.4|9=171|35=W|49=LMXBDM|56=jcorderop|34=41|52=20220627-11:37:23.615|262=100934|48=100934|22=8|268=2|269=0|270=21343.26|271=5|272=20220627|273=11:37:23.576|269=1|270=21345.26|271=5|10=136|
8=FIX.4.4|9=171|35=W|49=LMXBDM|56=jcorderop|34=42|52=20220627-11:37:24.715|262=100934|48=100934|22=8|268=2|269=0|270=21344.01|271=5|272=20220627|273=11:37:24.635|269=1|270=21346.01|271=5|10=124|
8=FIX.4.4|9=171|35=W|49=LMXBDM|56=jcorderop|34=43|52=20220627-11:37:28.919|262=100934|48=100934|22=8|268=2|269=0|270=21345.51|271=5|272=20220627|273=11:37:28.870|269=1|270=21347.51|271=5|10=152|
8=FIX.4.4|9=171|35=W|49=LMXBDM|56=jcorderop|34=44|52=20220627-11:37:30.020|262=100934|48=100934|22=8|268=2|269=0|270=21346.51|271=5|272=20220627|273=11:37:29.926|269=1|270=21348.51|271=5|10=134|
8=FIX.4.4|9=171|35=W|49=LMXBDM|56=jcorderop|34=45|52=20220627-11:37:31.020|262=100934|48=100934|22=8|268=2|269=0|270=21345.51|271=5|272=20220627|273=11:37:30.984|269=1|270=21347.51|271=5|10=130|
8=FIX.4.4|9=171|35=W|49=LMXBDM|56=jcorderop|34=46|52=20220627-11:37:36.324|262=100934|48=100934|22=8|268=2|269=0|270=21350.24|271=5|272=20220627|273=11:37:36.267|269=1|270=21353.77|271=5|10=144|
8=FIX.4.4|9=59|35=0|34=10|49=jcorderop|52=20220627-11:37:36.859|56=LMXBDM|10=166|
8=FIX.4.4|9=171|35=W|49=LMXBDM|56=jcorderop|34=47|52=20220627-11:37:37.325|262=100934|48=100934|22=8|268=2|269=0|270=21349.24|271=5|272=20220627|273=11:37:37.323|269=1|270=21353.27|271=5|10=144|
8=FIX.4.4|9=171|35=W|49=LMXBDM|56=jcorderop|34=48|52=20220627-11:37:39.527|262=100934|48=100934|22=8|268=2|269=0|270=21349.24|271=5|272=20220627|273=11:37:39.436|269=1|270=21353.77|271=5|10=163|
8=FIX.4.4|9=171|35=W|49=LMXBDM|56=jcorderop|34=49|52=20220627-11:37:40.527|262=100934|48=100934|22=8|268=2|269=0|270=21349.24|271=5|272=20220627|273=11:37:40.493|269=1|270=21353.27|271=5|10=146|
8=FIX.4.4|9=171|35=W|49=LMXBDM|56=jcorderop|34=50|52=20220627-11:37:44.730|262=100934|48=100934|22=8|268=2|269=0|270=21348.24|271=5|272=20220627|273=11:37:44.722|269=1|270=21353.27|271=5|10=136|
8=FIX.4.4|9=171|35=W|49=LMXBDM|56=jcorderop|34=51|52=20220627-11:37:45.831|262=100934|48=100934|22=8|268=2|269=0|270=21345.26|271=5|272=20220627|273=11:37:45.780|269=1|270=21347.26|271=5|10=146|
8=FIX.4.4|9=171|35=W|49=LMXBDM|56=jcorderop|34=52|52=20220627-11:37:47.932|262=100934|48=100934|22=8|268=2|269=0|270=21337.24|271=5|272=20220627|273=11:37:47.895|269=1|270=21344.77|271=5|10=162|
8=FIX.4.4|9=171|35=W|49=LMXBDM|56=jcorderop|34=53|52=20220627-11:37:50.034|262=100934|48=100934|22=8|268=2|269=0|270=21337.24|271=5|272=20220627|273=11:37:50.012|269=1|270=21343.27|271=5|10=119|
8=FIX.4.4|9=171|35=W|49=LMXBDM|56=jcorderop|34=54|52=20220627-11:37:52.135|262=100934|48=100934|22=8|268=2|269=0|270=21340.24|271=5|272=20220627|273=11:37:52.129|269=1|270=21343.27|271=5|10=129|
8=FIX.4.4|9=171|35=W|49=LMXBDM|56=jcorderop|34=55|52=20220627-11:37:55.336|262=100934|48=100934|22=8|268=2|269=0|270=21346.74|271=5|272=20220627|273=11:37:55.303|269=1|270=21351.27|271=5|10=143|
8=FIX.4.4|9=171|35=W|49=LMXBDM|56=jcorderop|34=56|52=20220627-11:37:56.437|262=100934|48=100934|22=8|268=2|269=0|270=21346.24|271=5|272=20220627|273=11:37:56.362|269=1|270=21348.77|271=5|10=159|
8=FIX.4.4|9=171|35=W|49=LMXBDM|56=jcorderop|34=57|52=20220627-11:37:57.438|262=100934|48=100934|22=8|268=2|269=0|270=21349.24|271=5|272=20220627|273=11:37:57.421|269=1|270=21353.77|271=5|10=158|
8=FIX.4.4|9=174|35=W|49=LMXBDM|56=jcorderop|34=58|52=20220627-11:37:58.538|262=100934|48=100934|22=8|268=2|269=0|270=21349.74|271=5|272=20220627|273=11:37:58.479|269=1|270=21353.27|271=4.97|10=079|
8=FIX.4.4|9=174|35=W|49=LMXBDM|56=jcorderop|34=59|52=20220627-11:37:59.639|262=100934|48=100934|22=8|268=2|269=0|270=21347.74|271=5|272=20220627|273=11:37:59.538|269=1|270=21353.27|271=4.97|10=078|
8=FIX.4.4|9=174|35=W|49=LMXBDM|56=jcorderop|34=60|52=20220627-11:37:59.939|262=100934|48=100934|22=8|268=2|269=0|270=21347.74|271=5|272=20220627|273=11:37:59.870|269=1|270=21353.27|271=4.97|10=072|
8=FIX.4.4|9=174|35=W|49=LMXBDM|56=jcorderop|34=61|52=20220627-11:38:00.639|262=100934|48=100934|22=8|268=2|269=0|270=21348.74|271=5|272=20220627|273=11:38:00.596|269=1|270=21353.27|271=4.97|10=050|
8=FIX.4.4|9=174|35=W|49=LMXBDM|56=jcorderop|34=62|52=20220627-11:38:01.740|262=100934|48=100934|22=8|268=2|269=0|270=21348.74|271=5|272=20220627|273=11:38:01.656|269=1|270=21353.27|271=4.95|10=041|
8=FIX.4.4|9=174|35=W|49=LMXBDM|56=jcorderop|34=63|52=20220627-11:38:04.842|262=100934|48=100934|22=8|268=2|269=0|270=21348.24|271=5|272=20220627|273=11:38:04.831|269=1|270=21353.77|271=4.95|10=046|
8=FIX.4.4|9=174|35=W|49=LMXBDM|56=jcorderop|34=64|52=20220627-11:38:05.943|262=100934|48=100934|22=8|268=2|269=0|270=21348.74|271=5|272=20220627|273=11:38:05.889|269=1|270=21353.27|271=4.95|10=064|
8=FIX.4.4|9=59|35=0|34=11|49=jcorderop|52=20220627-11:38:06.870|56=LMXBDM|10=158|
8=FIX.4.4|9=174|35=W|49=LMXBDM|56=jcorderop|34=65|52=20220627-11:38:09.144|262=100934|48=100934|22=8|268=2|269=0|270=21347.74|271=5|272=20220627|273=11:38:09.064|269=1|270=21353.27|271=4.95|10=050|
8=FIX.4.4|9=174|35=W|49=LMXBDM|56=jcorderop|34=66|52=20220627-11:38:11.245|262=100934|48=100934|22=8|268=2|269=0|270=21346.24|271=5|272=20220627|273=11:38:11.180|269=1|270=21353.77|271=4.95|10=037|
8=FIX.4.4|9=174|35=W|49=LMXBDM|56=jcorderop|34=67|52=20220627-11:38:12.246|262=100934|48=100934|22=8|268=2|269=0|270=21346.24|271=5|272=20220627|273=11:38:12.238|269=1|270=21353.27|271=4.95|10=040|
8=FIX.4.4|9=174|35=W|49=LMXBDM|56=jcorderop|34=68|52=20220627-11:38:13.347|262=100934|48=100934|22=8|268=2|269=0|270=21345.24|271=5|272=20220627|273=11:38:13.296|269=1|270=21353.27|271=4.95|10=048|
8=FIX.4.4|9=174|35=W|49=LMXBDM|56=jcorderop|34=69|52=20220627-11:38:14.447|262=100934|48=100934|22=8|268=2|269=0|270=21345.24|271=5|272=20220627|273=11:38:14.355|269=1|270=21350.77|271=4.95|10=050|
8=FIX.4.4|9=174|35=W|49=LMXBDM|56=jcorderop|34=70|52=20220627-11:38:15.448|262=100934|48=100934|22=8|268=2|269=0|270=21342.26|271=5|272=20220627|273=11:38:15.413|269=1|270=21344.26|271=4.95|10=036|
8=FIX.4.4|9=174|35=W|49=LMXBDM|56=jcorderop|34=71|52=20220627-11:38:16.549|262=100934|48=100934|22=8|268=2|269=0|270=21341.26|271=5|272=20220627|273=11:38:16.470|269=1|270=21343.26|271=4.95|10=042|
8=FIX.4.4|9=174|35=W|49=LMXBDM|56=jcorderop|34=72|52=20220627-11:38:17.549|262=100934|48=100934|22=8|268=2|269=0|270=21342.26|271=5|272=20220627|273=11:38:17.527|269=1|270=21344.26|271=4.95|10=050|
8=FIX.4.4|9=174|35=W|49=LMXBDM|56=jcorderop|34=73|52=20220627-11:38:18.650|262=100934|48=100934|22=8|268=2|269=0|270=21342.51|271=5|272=20220627|273=11:38:18.585|269=1|270=21344.51|271=4.95|10=046|
8=FIX.4.4|9=174|35=W|49=LMXBDM|56=jcorderop|34=74|52=20220627-11:38:19.651|262=100934|48=100934|22=8|268=2|269=0|270=21342.01|271=5|272=20220627|273=11:38:19.643|269=1|270=21344.01|271=4.95|10=035|
8=FIX.4.4|9=174|35=W|49=LMXBDM|56=jcorderop|34=75|52=20220627-11:38:20.751|262=100934|48=100934|22=8|268=2|269=0|270=21342.51|271=5|272=20220627|273=11:38:20.701|269=1|270=21344.51|271=4.95|10=026|
8=FIX.4.4|9=174|35=W|49=LMXBDM|56=jcorderop|34=76|52=20220627-11:38:21.852|262=100934|48=100934|22=8|268=2|269=0|270=21344.24|271=5|272=20220627|273=11:38:21.758|269=1|270=21350.27|271=4.95|10=045|
8=FIX.4.4|9=174|35=W|49=LMXBDM|56=jcorderop|34=77|52=20220627-11:38:22.852|262=100934|48=100934|22=8|268=2|269=0|270=21344.74|271=5|272=20220627|273=11:38:22.816|269=1|270=21350.27|271=4.95|10=048|
8=FIX.4.4|9=174|35=W|49=LMXBDM|56=jcorderop|34=78|52=20220627-11:38:23.952|262=100934|48=100934|22=8|268=2|269=0|270=21345.74|271=5|272=20220627|273=11:38:23.873|269=1|270=21349.77|271=4.95|10=069|
8=FIX.4.4|9=174|35=W|49=LMXBDM|56=jcorderop|34=79|52=20220627-11:38:24.953|262=100934|48=100934|22=8|268=2|269=0|270=21346.24|271=5|272=20220627|273=11:38:24.930|269=1|270=21349.77|271=4.95|10=063|
8=FIX.4.4|9=174|35=W|49=LMXBDM|56=jcorderop|34=80|52=20220627-11:38:26.055|262=100934|48=100934|22=8|268=2|269=0|270=21343.24|271=5|272=20220627|273=11:38:25.988|269=1|270=21349.77|271=4.95|10=061|
8=FIX.4.4|9=174|35=W|49=LMXBDM|56=jcorderop|34=81|52=20220627-11:38:27.055|262=100934|48=100934|22=8|268=2|269=0|270=21343.74|271=5|272=20220627|273=11:38:27.045|269=1|270=21350.27|271=4.95|10=041|
8=FIX.4.4|9=174|35=W|49=LMXBDM|56=jcorderop|34=82|52=20220627-11:38:29.256|262=100934|48=100934|22=8|268=2|269=0|270=21343.74|271=5|272=20220627|273=11:38:29.161|269=1|270=21349.77|271=4.95|10=061|
8=FIX.4.4|9=174|35=W|49=LMXBDM|56=jcorderop|34=83|52=20220627-11:38:31.357|262=100934|48=100934|22=8|268=2|269=0|270=21344.74|271=5|272=20220627|273=11:38:31.276|269=1|270=21351.77|271=4.95|10=051|
8=FIX.4.4|9=174|35=W|49=LMXBDM|56=jcorderop|34=84|52=20220627-11:38:32.358|262=100934|48=100934|22=8|268=2|269=0|270=21345.74|271=5|272=20220627|273=11:38:32.334|269=1|270=21351.77|271=4.95|10=051|
8=FIX.4.4|9=174|35=W|49=LMXBDM|56=jcorderop|34=85|52=20220627-11:38:33.458|262=100934|48=100934|22=8|268=2|269=0|270=21344.74|271=5|272=20220627|273=11:38:33.391|269=1|270=21351.27|271=4.95|10=052|
8=FIX.4.4|9=174|35=W|49=LMXBDM|56=jcorderop|34=86|52=20220627-11:38:34.459|262=100934|48=100934|22=8|268=2|269=0|270=21346.24|271=5|272=20220627|273=11:38:34.450|269=1|270=21351.27|271=4.95|10=049|
8=FIX.4.4|9=174|35=W|49=LMXBDM|56=jcorderop|34=87|52=20220627-11:38:35.559|262=100934|48=100934|22=8|268=2|269=0|270=21345.24|271=5|272=20220627|273=11:38:35.508|269=1|270=21351.27|271=4.95|10=056|
8=FIX.4.4|9=174|35=W|49=LMXBDM|56=jcorderop|34=88|52=20220627-11:38:37.660|262=100934|48=100934|22=8|268=2|269=0|270=21343.74|271=5|272=20220627|273=11:38:37.625|269=1|270=21351.27|271=4.95|10=057|
8=FIX.4.4|9=59|35=0|34=12|49=jcorderop|52=20220627-11:38:37.720|56=LMXBDM|10=157|
8=FIX.4.4|9=174|35=W|49=LMXBDM|56=jcorderop|34=89|52=20220627-11:38:38.761|262=100934|48=100934|22=8|268=2|269=0|270=21344.74|271=5|272=20220627|273=11:38:38.683|269=1|270=21351.27|271=4.95|10=067|
8=FIX.4.4|9=174|35=W|49=LMXBDM|56=jcorderop|34=90|52=20220627-11:38:39.761|262=100934|48=100934|22=8|268=2|269=0|270=21343.74|271=5|272=20220627|273=11:38:39.742|269=1|270=21351.27|271=4.95|10=056|
8=FIX.4.4|9=174|35=W|49=LMXBDM|56=jcorderop|34=91|52=20220627-11:38:41.862|262=100934|48=100934|22=8|268=2|269=0|270=21343.74|271=5|272=20220627|273=11:38:41.858|269=1|270=21350.77|271=4.95|10=057|
8=FIX.4.4|9=174|35=W|49=LMXBDM|56=jcorderop|34=92|52=20220627-11:38:45.064|262=100934|48=100934|22=8|268=2|269=0|270=21344.74|271=5|272=20220627|273=11:38:45.032|269=1|270=21349.27|271=4.95|10=048|
8=FIX.4.4|9=174|35=W|49=LMXBDM|56=jcorderop|34=93|52=20220627-11:38:47.165|262=100934|48=100934|22=8|268=2|269=0|270=21343.74|271=5|272=20220627|273=11:38:47.146|269=1|270=21349.27|271=4.95|10=060|
8=FIX.4.4|9=174|35=W|49=LMXBDM|56=jcorderop|34=94|52=20220627-11:38:48.266|262=100934|48=100934|22=8|268=2|269=0|270=21343.74|271=5|272=20220627|273=11:38:48.203|269=1|270=21348.77|271=4.95|10=063|
8=FIX.4.4|9=174|35=W|49=LMXBDM|56=jcorderop|34=95|52=20220627-11:38:50.367|262=100934|48=100934|22=8|268=2|269=0|270=21340.51|271=5|272=20220627|273=11:38:50.318|269=1|270=21342.51|271=4.95|10=037|
8=FIX.4.4|9=174|35=W|49=LMXBDM|56=jcorderop|34=96|52=20220627-11:38:51.468|262=100934|48=100934|22=8|268=2|269=0|270=21338.26|271=5|272=20220627|273=11:38:51.376|269=1|270=21340.26|271=4.95|10=055|
8=FIX.4.4|9=174|35=W|49=LMXBDM|56=jcorderop|34=97|52=20220627-11:38:52.468|262=100934|48=100934|22=8|268=2|269=0|270=21337.51|271=5|272=20220627|273=11:38:52.434|269=1|270=21339.51|271=4.95|10=056|
8=FIX.4.4|9=174|35=W|49=LMXBDM|56=jcorderop|34=98|52=20220627-11:38:57.771|262=100934|48=100934|22=8|268=2|269=0|270=21340.74|271=5|272=20220627|273=11:38:57.725|269=1|270=21351.77|271=4.95|10=068|
8=FIX.4.4|9=174|35=W|49=LMXBDM|56=jcorderop|34=99|52=20220627-11:38:58.872|262=100934|48=100934|22=8|268=2|269=0|270=21342.74|271=5|272=20220627|273=11:38:58.783|269=1|270=21353.77|271=4.95|10=081|
8=FIX.4.4|9=175|35=W|49=LMXBDM|56=jcorderop|34=100|52=20220627-11:38:59.872|262=100934|48=100934|22=8|268=2|269=0|270=21342.74|271=5|272=20220627|273=11:38:59.870|269=1|270=21349.77|271=4.95|10=117|
8=FIX.4.4|9=175|35=W|49=LMXBDM|56=jcorderop|34=101|52=20220627-11:39:00.973|262=100934|48=100934|22=8|268=2|269=0|270=21342.74|271=5|272=20220627|273=11:39:00.899|269=1|270=21351.27|271=4.95|10=093|
8=FIX.4.4|9=172|35=W|49=LMXBDM|56=jcorderop|34=102|52=20220627-11:39:03.074|262=100934|48=100934|22=8|268=2|269=0|270=21342.74|271=5|272=20220627|273=11:39:03.015|269=1|270=21350.77|271=5|10=174|
8=FIX.4.4|9=172|35=W|49=LMXBDM|56=jcorderop|34=103|52=20220627-11:39:04.075|262=100934|48=100934|22=8|268=2|269=0|270=21342.74|271=5|272=20220627|273=11:39:04.073|269=1|270=21348.77|271=5|10=189|
8=FIX.4.4|9=172|35=W|49=LMXBDM|56=jcorderop|34=104|52=20220627-11:39:05.175|262=100934|48=100934|22=8|268=2|269=0|270=21340.76|271=5|272=20220627|273=11:39:05.131|269=1|270=21342.76|271=5|10=181|
8=FIX.4.4|9=172|35=W|49=LMXBDM|56=jcorderop|34=105|52=20220627-11:39:06.276|262=100934|48=100934|22=8|268=2|269=0|270=21338.74|271=5|272=20220627|273=11:39:06.189|269=1|270=21340.77|271=5|10=203|
8=FIX.4.4|9=172|35=W|49=LMXBDM|56=jcorderop|34=106|52=20220627-11:39:07.276|262=100934|48=100934|22=8|268=2|269=0|270=21339.51|271=5|272=20220627|273=11:39:07.247|269=1|270=21341.51|271=5|10=190|
8=FIX.4.4|9=59|35=0|34=13|49=jcorderop|52=20220627-11:39:07.870|56=LMXBDM|10=162|
8=FIX.4.4|9=172|35=W|49=LMXBDM|56=jcorderop|34=107|52=20220627-11:39:08.377|262=100934|48=100934|22=8|268=2|269=0|270=21333.24|271=5|272=20220627|273=11:39:08.305|269=1|270=21340.77|271=5|10=191|
8=FIX.4.4|9=172|35=W|49=LMXBDM|56=jcorderop|34=108|52=20220627-11:39:09.377|262=100934|48=100934|22=8|268=2|269=0|270=21336.76|271=5|272=20220627|273=11:39:09.363|269=1|270=21338.76|271=5|10=214|
8=FIX.4.4|9=172|35=W|49=LMXBDM|56=jcorderop|34=109|52=20220627-11:39:10.478|262=100934|48=100934|22=8|268=2|269=0|270=21334.74|271=5|272=20220627|273=11:39:10.423|269=1|270=21337.77|271=5|10=194|
8=FIX.4.4|9=172|35=W|49=LMXBDM|56=jcorderop|34=110|52=20220627-11:39:11.579|262=100934|48=100934|22=8|268=2|269=0|270=21334.51|271=5|272=20220627|273=11:39:11.481|269=1|270=21336.51|271=5|10=180|
8=FIX.4.4|9=172|35=W|49=LMXBDM|56=jcorderop|34=111|52=20220627-11:39:12.579|262=100934|48=100934|22=8|268=2|269=0|270=21333.76|271=5|272=20220627|273=11:39:12.540|269=1|270=21335.76|271=5|10=191|
8=FIX.4.4|9=172|35=W|49=LMXBDM|56=jcorderop|34=112|52=20220627-11:39:13.680|262=100934|48=100934|22=8|268=2|269=0|270=21335.51|271=5|272=20220627|273=11:39:13.598|269=1|270=21337.51|271=5|10=190|
8=FIX.4.4|9=172|35=W|49=LMXBDM|56=jcorderop|34=113|52=20220627-11:39:14.680|262=100934|48=100934|22=8|268=2|269=0|270=21335.26|271=5|272=20220627|273=11:39:14.656|269=1|270=21337.26|271=5|10=192|
8=FIX.4.4|9=172|35=W|49=LMXBDM|56=jcorderop|34=114|52=20220627-11:39:15.781|262=100934|48=100934|22=8|268=2|269=0|270=21339.01|271=5|272=20220627|273=11:39:15.715|269=1|270=21341.01|271=5|10=178|
8=FIX.4.4|9=172|35=W|49=LMXBDM|56=jcorderop|34=115|52=20220627-11:39:16.781|262=100934|48=100934|22=8|268=2|269=0|270=21337.74|271=5|272=20220627|273=11:39:16.773|269=1|270=21342.27|271=5|10=202|
8=FIX.4.4|9=172|35=W|49=LMXBDM|56=jcorderop|34=116|52=20220627-11:39:17.882|262=100934|48=100934|22=8|268=2|269=0|270=21339.01|271=5|272=20220627|273=11:39:17.831|269=1|270=21341.01|271=5|10=185|
8=FIX.4.4|9=172|35=W|49=LMXBDM|56=jcorderop|34=117|52=20220627-11:39:21.083|262=100934|48=100934|22=8|268=2|269=0|270=21340.51|271=5|272=20220627|273=11:39:21.005|269=1|270=21342.51|271=5|10=165|
8=FIX.4.4|9=172|35=W|49=LMXBDM|56=jcorderop|34=118|52=20220627-11:39:22.084|262=100934|48=100934|22=8|268=2|269=0|270=21343.51|271=5|272=20220627|273=11:39:22.064|269=1|270=21345.51|271=5|10=180|
8=FIX.4.4|9=172|35=W|49=LMXBDM|56=jcorderop|34=119|52=20220627-11:39:23.185|262=100934|48=100934|22=8|268=2|269=0|270=21343.26|271=5|272=20220627|273=11:39:23.121|269=1|270=21345.26|271=5|10=183|
8=FIX.4.4|9=175|35=W|49=LMXBDM|56=jcorderop|34=120|52=20220627-11:39:25.286|262=100934|48=100934|22=8|268=2|269=0|270=21344.01|271=4.95|272=20220627|273=11:39:25.238|269=1|270=21346.01|271=5|10=080|
8=FIX.4.4|9=175|35=W|49=LMXBDM|56=jcorderop|34=121|52=20220627-11:39:26.387|262=100934|48=100934|22=8|268=2|269=0|270=21343.26|271=4.95|272=20220627|273=11:39:26.295|269=1|270=21345.26|271=5|10=100|
8=FIX.4.4|9=175|35=W|49=LMXBDM|56=jcorderop|34=122|52=20220627-11:39:31.590|262=100934|48=100934|22=8|268=2|269=0|270=21341.74|271=4.87|272=20220627|273=11:39:31.586|269=1|270=21344.27|271=5|10=094|
8=FIX.4.4|9=175|35=W|49=LMXBDM|56=jcorderop|34=123|52=20220627-11:39:32.691|262=100934|48=100934|22=8|268=2|269=0|270=21343.01|271=4.87|272=20220627|273=11:39:32.645|269=1|270=21345.01|271=5|10=080|
8=FIX.4.4|9=175|35=W|49=LMXBDM|56=jcorderop|34=124|52=20220627-11:39:34.793|262=100934|48=100934|22=8|268=2|269=0|270=21342.51|271=4.87|272=20220627|273=11:39:34.761|269=1|270=21344.51|271=5|10=095|
8=FIX.4.4|9=59|35=0|34=14|49=jcorderop|52=20220627-11:39:38.862|56=LMXBDM|10=168|
8=FIX.4.4|9=175|35=W|49=LMXBDM|56=jcorderop|34=125|52=20220627-11:39:39.095|262=100934|48=100934|22=8|268=2|269=0|270=21343.26|271=4.72|272=20220627|273=11:39:38.995|269=1|270=21345.26|271=5|10=109|
8=FIX.4.4|9=175|35=W|49=LMXBDM|56=jcorderop|34=126|52=20220627-11:39:40.096|262=100934|48=100934|22=8|268=2|269=0|270=21343.01|271=4.72|272=20220627|273=11:39:40.054|269=1|270=21345.01|271=5|10=068|
8=FIX.4.4|9=175|35=W|49=LMXBDM|56=jcorderop|34=127|52=20220627-11:39:42.197|262=100934|48=100934|22=8|268=2|269=0|270=21342.51|271=4.72|272=20220627|273=11:39:42.169|269=1|270=21344.51|271=5|10=090|
8=FIX.4.4|9=175|35=W|49=LMXBDM|56=jcorderop|34=128|52=20220627-11:39:43.297|262=100934|48=100934|22=8|268=2|269=0|270=21342.76|271=4.72|272=20220627|273=11:39:43.227|269=1|270=21344.76|271=5|10=103|
8=FIX.4.4|9=175|35=W|49=LMXBDM|56=jcorderop|34=129|52=20220627-11:39:44.298|262=100934|48=100934|22=8|268=2|269=0|270=21343.51|271=4.72|272=20220627|273=11:39:44.285|269=1|270=21345.51|271=5|10=099|
8=FIX.4.4|9=175|35=W|49=LMXBDM|56=jcorderop|34=130|52=20220627-11:39:45.398|262=100934|48=100934|22=8|268=2|269=0|270=21342.24|271=4.72|272=20220627|273=11:39:45.344|269=1|270=21351.57|271=5|10=092|
8=FIX.4.4|9=175|35=W|49=LMXBDM|56=jcorderop|34=131|52=20220627-11:39:47.499|262=100934|48=100934|22=8|268=2|269=0|270=21342.24|271=4.72|272=20220627|273=11:39:47.462|269=1|270=21351.77|271=5|10=102|
8=FIX.4.4|9=175|35=W|49=LMXBDM|56=jcorderop|34=132|52=20220627-11:39:50.702|262=100934|48=100934|22=8|268=2|269=0|270=21342.24|271=4.72|272=20220627|273=11:39:50.639|269=1|270=21352.01|271=5|10=072|
8=FIX.4.4|9=175|35=W|49=LMXBDM|56=jcorderop|34=133|52=20220627-11:39:51.702|262=100934|48=100934|22=8|268=2|269=0|270=21342.24|271=4.72|272=20220627|273=11:39:51.699|269=1|270=21351.77|271=5|10=093|
8=FIX.4.4|9=175|35=W|49=LMXBDM|56=jcorderop|34=134|52=20220627-11:39:56.005|262=100934|48=100934|22=8|268=2|269=0|270=21343.74|271=4.72|272=20220627|273=11:39:55.936|269=1|270=21351.27|271=5|10=094|
8=FIX.4.4|9=175|35=W|49=LMXBDM|56=jcorderop|34=135|52=20220627-11:39:57.007|262=100934|48=100934|22=8|268=2|269=0|270=21345.24|271=4.72|272=20220627|273=11:39:56.994|269=1|270=21351.27|271=5|10=100|
8=FIX.4.4|9=175|35=W|49=LMXBDM|56=jcorderop|34=136|52=20220627-11:39:59.909|262=100934|48=100934|22=8|268=2|269=0|270=21345.24|271=4.72|272=20220627|273=11:39:59.870|269=1|270=21351.27|271=5|10=110|
8=FIX.4.4|9=175|35=W|49=LMXBDM|56=jcorderop|34=137|52=20220627-11:40:00.209|262=100934|48=100934|22=8|268=2|269=0|270=21338.24|271=4.72|272=20220627|273=11:40:00.170|269=1|270=21342.27|271=5|10=055|
8=FIX.4.4|9=175|35=W|49=LMXBDM|56=jcorderop|34=138|52=20220627-11:40:01.310|262=100934|48=100934|22=8|268=2|269=0|270=21338.24|271=4.72|272=20220627|273=11:40:01.228|269=1|270=21341.77|271=5|10=059|
8=FIX.4.4|9=175|35=W|49=LMXBDM|56=jcorderop|34=139|52=20220627-11:40:06.613|262=100934|48=100934|22=8|268=2|269=0|270=21338.24|271=4.72|272=20220627|273=11:40:06.519|269=1|270=21340.77|271=5|10=078|
8=FIX.4.4|9=175|35=W|49=LMXBDM|56=jcorderop|34=140|52=20220627-11:40:07.614|262=100934|48=100934|22=8|268=2|269=0|270=21330.74|271=4.72|272=20220627|273=11:40:07.576|269=1|270=21339.27|271=5|10=076|
8=FIX.4.4|9=175|35=W|49=LMXBDM|56=jcorderop|34=141|52=20220627-11:40:08.715|262=100934|48=100934|22=8|268=2|269=0|270=21330.74|271=4.72|272=20220627|273=11:40:08.633|269=1|270=21337.77|271=5|10=078|
8=FIX.4.4|9=59|35=0|34=15|49=jcorderop|52=20220627-11:40:08.866|56=LMXBDM|10=162|
8=FIX.4.4|9=175|35=W|49=LMXBDM|56=jcorderop|34=142|52=20220627-11:40:09.716|262=100934|48=100934|22=8|268=2|269=0|270=21331.24|271=4.72|272=20220627|273=11:40:09.692|269=1|270=21337.77|271=5|10=083|
8=FIX.4.4|9=175|35=W|49=LMXBDM|56=jcorderop|34=143|52=20220627-11:40:11.817|262=100934|48=100934|22=8|268=2|269=0|270=21332.24|271=4.72|272=20220627|273=11:40:11.806|269=1|270=21337.77|271=5|10=070|
8=FIX.4.4|9=175|35=W|49=LMXBDM|56=jcorderop|34=144|52=20220627-11:40:12.918|262=100934|48=100934|22=8|268=2|269=0|270=21331.74|271=4.72|272=20220627|273=11:40:12.863|269=1|270=21337.77|271=5|10=082|
8=FIX.4.4|9=175|35=W|49=LMXBDM|56=jcorderop|34=145|52=20220627-11:40:15.020|262=100934|48=100934|22=8|268=2|269=0|270=21331.74|271=4.72|272=20220627|273=11:40:14.978|269=1|270=21339.27|271=5|10=076|
8=FIX.4.4|9=175|35=W|49=LMXBDM|56=jcorderop|34=146|52=20220627-11:40:16.120|262=100934|48=100934|22=8|268=2|269=0|270=21332.24|271=4.72|272=20220627|273=11:40:16.037|269=1|270=21336.77|271=5|10=065|
8=FIX.4.4|9=175|35=W|49=LMXBDM|56=jcorderop|34=147|52=20220627-11:40:17.121|262=100934|48=100934|22=8|268=2|269=0|270=21332.24|271=4.72|272=20220627|273=11:40:17.095|269=1|270=21338.77|271=5|10=075|
8=FIX.4.4|9=175|35=W|49=LMXBDM|56=jcorderop|34=148|52=20220627-11:40:19.223|262=100934|48=100934|22=8|268=2|269=0|270=21332.24|271=4.72|272=20220627|273=11:40:19.212|269=1|270=21339.27|271=5|10=070|
8=FIX.4.4|9=175|35=W|49=LMXBDM|56=jcorderop|34=149|52=20220627-11:40:20.323|262=100934|48=100934|22=8|268=2|269=0|270=21332.74|271=4.72|272=20220627|273=11:40:20.271|269=1|270=21337.27|271=5|10=064|
8=FIX.4.4|9=175|35=W|49=LMXBDM|56=jcorderop|34=150|52=20220627-11:40:21.424|262=100934|48=100934|22=8|268=2|269=0|270=21332.74|271=4.72|272=20220627|273=11:40:21.330|269=1|270=21347.27|271=5|10=057|
8=FIX.4.4|9=175|35=W|49=LMXBDM|56=jcorderop|34=151|52=20220627-11:40:22.425|262=100934|48=100934|22=8|268=2|269=0|270=21338.24|271=4.72|272=20220627|273=11:40:22.388|269=1|270=21342.77|271=5|10=075|
8=FIX.4.4|9=175|35=W|49=LMXBDM|56=jcorderop|34=152|52=20220627-11:40:23.525|262=100934|48=100934|22=8|268=2|269=0|270=21337.74|271=4.72|272=20220627|273=11:40:23.447|269=1|270=21341.27|271=5|10=073|
8=FIX.4.4|9=175|35=W|49=LMXBDM|56=jcorderop|34=153|52=20220627-11:40:24.526|262=100934|48=100934|22=8|268=2|269=0|270=21337.26|271=4.72|272=20220627|273=11:40:24.507|269=1|270=21339.26|271=5|10=077|
8=FIX.4.4|9=175|35=W|49=LMXBDM|56=jcorderop|34=154|52=20220627-11:40:25.627|262=100934|48=100934|22=8|268=2|269=0|270=21332.24|271=4.72|272=20220627|273=11:40:25.565|269=1|270=21338.77|271=5|10=084|
8=FIX.4.4|9=175|35=W|49=LMXBDM|56=jcorderop|34=155|52=20220627-11:40:26.628|262=100934|48=100934|22=8|268=2|269=0|270=21330.74|271=4.72|272=20220627|273=11:40:26.623|269=1|270=21338.77|271=5|10=086|
8=FIX.4.4|9=175|35=W|49=LMXBDM|56=jcorderop|34=156|52=20220627-11:40:27.728|262=100934|48=100934|22=8|268=2|269=0|270=21331.24|271=4.72|272=20220627|273=11:40:27.681|269=1|270=21337.27|271=5|10=084|
8=FIX.4.4|9=59|35=0|34=16|49=jcorderop|52=20220627-11:40:38.867|56=LMXBDM|10=167|
8=FIX.4.4|9=172|35=W|49=LMXBDM|56=jcorderop|34=157|52=20220627-11:40:41.437|262=100934|48=100934|22=8|268=2|269=0|270=21332.74|271=5|272=20220627|273=11:40:41.434|269=1|270=21337.27|271=5|10=179|
8=FIX.4.4|9=172|35=W|49=LMXBDM|56=jcorderop|34=158|52=20220627-11:40:42.538|262=100934|48=100934|22=8|268=2|269=0|270=21332.74|271=5|272=20220627|273=11:40:42.492|269=1|270=21335.77|271=5|10=191|
8=FIX.4.4|9=172|35=W|49=LMXBDM|56=jcorderop|34=159|52=20220627-11:40:43.638|262=100934|48=100934|22=8|268=2|269=0|270=21334.24|271=5|272=20220627|273=11:40:43.550|269=1|270=21337.27|271=5|10=184|
8=FIX.4.4|9=172|35=W|49=LMXBDM|56=jcorderop|34=160|52=20220627-11:40:45.739|262=100934|48=100934|22=8|268=2|269=0|270=21333.76|271=5|272=20220627|273=11:40:45.668|269=1|270=21335.76|271=5|10=200|
8=FIX.4.4|9=172|35=W|49=LMXBDM|56=jcorderop|34=161|52=20220627-11:40:47.840|262=100934|48=100934|22=8|268=2|269=0|270=21334.24|271=5|272=20220627|273=11:40:47.784|269=1|270=21336.77|271=5|10=193|
8=FIX.4.4|9=172|35=W|49=LMXBDM|56=jcorderop|34=162|52=20220627-11:40:54.144|262=100934|48=100934|22=8|268=2|269=0|270=21336.26|271=5|272=20220627|273=11:40:54.132|269=1|270=21338.26|271=5|10=174|
8=FIX.4.4|9=172|35=W|49=LMXBDM|56=jcorderop|34=163|52=20220627-11:40:55.244|262=100934|48=100934|22=8|268=2|269=0|270=21337.51|271=5|272=20220627|273=11:40:55.190|269=1|270=21339.51|271=5|10=180|
8=FIX.4.4|9=172|35=W|49=LMXBDM|56=jcorderop|34=164|52=20220627-11:40:56.345|262=100934|48=100934|22=8|268=2|269=0|270=21336.76|271=5|272=20220627|273=11:40:56.247|269=1|270=21338.76|271=5|10=200|
8=FIX.4.4|9=172|35=W|49=LMXBDM|56=jcorderop|34=165|52=20220627-11:40:59.447|262=100934|48=100934|22=8|268=2|269=0|270=21336.26|271=5|272=20220627|273=11:40:59.417|269=1|270=21338.26|271=5|10=199|
8=FIX.4.4|9=172|35=W|49=LMXBDM|56=jcorderop|34=166|52=20220627-11:40:59.947|262=100934|48=100934|22=8|268=2|269=0|270=21336.26|271=5|272=20220627|273=11:40:59.870|269=1|270=21338.26|271=5|10=208|
8=FIX.4.4|9=172|35=W|49=LMXBDM|56=jcorderop|34=167|52=20220627-11:41:00.548|262=100934|48=100934|22=8|268=2|269=0|270=21336.51|271=5|272=20220627|273=11:41:00.475|269=1|270=21338.51|271=5|10=177|
8=FIX.4.4|9=172|35=W|49=LMXBDM|56=jcorderop|34=168|52=20220627-11:41:01.548|262=100934|48=100934|22=8|268=2|269=0|270=21336.26|271=5|272=20220627|273=11:41:01.533|269=1|270=21338.26|271=5|10=179|
8=FIX.4.4|9=172|35=W|49=LMXBDM|56=jcorderop|34=169|52=20220627-11:41:02.649|262=100934|48=100934|22=8|268=2|269=0|270=21336.76|271=5|272=20220627|273=11:41:02.590|269=1|270=21338.76|271=5|10=197|
8=FIX.4.4|9=172|35=W|49=LMXBDM|56=jcorderop|34=170|52=20220627-11:41:04.750|262=100934|48=100934|22=8|268=2|269=0|270=21335.01|271=5|272=20220627|273=11:41:04.706|269=1|270=21337.01|271=5|10=159|
8=FIX.4.4|9=133|35=V|34=17|49=jcorderop|52=20220627-11:41:08.570|56=LMXBDM|262=100934|263=2|264=0|265=0|266=Y|146=1|48=100934|22=8|267=2|269=0|269=1|10=055|
8=FIX.4.4|9=60|35=0|49=LMXBDM|56=jcorderop|34=171|52=20220627-11:41:34.750|10=197|
8=FIX.4.4|9=59|35=0|34=18|49=jcorderop|52=20220627-11:41:38.866|56=LMXBDM|10=169|
8=FIX.4.4|9=60|35=0|49=LMXBDM|56=jcorderop|34=172|52=20220627-11:42:04.750|10=196|
8=FIX.4.4|9=59|35=0|34=19|49=jcorderop|52=20220627-11:42:08.867|56=LMXBDM|10=169|
8=FIX.4.4|9=60|35=0|49=LMXBDM|56=jcorderop|34=173|52=20220627-11:42:34.751|10=201|
8=FIX.4.4|9=59|35=0|34=20|49=jcorderop|52=20220627-11:42:38.866|56=LMXBDM|10=163|
8=FIX.4.4|9=60|35=0|49=LMXBDM|56=jcorderop|34=174|52=20220627-11:43:04.752|10=201|
8=FIX.4.4|9=59|35=0|34=21|49=jcorderop|52=20220627-11:43:08.861|56=LMXBDM|10=157|
8=FIX.4.4|9=60|35=0|49=LMXBDM|56=jcorderop|34=175|52=20220627-11:43:34.752|10=205|
8=FIX.4.4|9=59|35=0|34=22|49=jcorderop|52=20220627-11:43:38.866|56=LMXBDM|10=166|
8=FIX.4.4|9=60|35=0|49=LMXBDM|56=jcorderop|34=176|52=20220627-11:44:04.752|10=204|
8=FIX.4.4|9=59|35=0|34=23|49=jcorderop|52=20220627-11:44:08.868|56=LMXBDM|10=167|
8=FIX.4.4|9=60|35=0|49=LMXBDM|56=jcorderop|34=177|52=20220627-11:44:34.752|10=208|
8=FIX.4.4|9=59|35=0|34=24|49=jcorderop|52=20220627-11:44:38.861|56=LMXBDM|10=164|
8=FIX.4.4|9=60|35=0|49=LMXBDM|56=jcorderop|34=178|52=20220627-11:45:04.753|10=208|
8=FIX.4.4|9=59|35=0|34=25|49=jcorderop|52=20220627-11:45:08.866|56=LMXBDM|10=168|
8=FIX.4.4|9=60|35=0|49=LMXBDM|56=jcorderop|34=179|52=20220627-11:45:34.754|10=213|
8=FIX.4.4|9=59|35=0|34=26|49=jcorderop|52=20220627-11:45:38.867|56=LMXBDM|10=173|
8=FIX.4.4|9=60|35=0|49=LMXBDM|56=jcorderop|34=180|52=20220627-11:46:04.755|10=204|
8=FIX.4.4|9=59|35=0|34=27|49=jcorderop|52=20220627-11:46:08.861|56=LMXBDM|10=166|
8=FIX.4.4|9=60|35=0|49=LMXBDM|56=jcorderop|34=181|52=20220627-11:46:34.755|10=208|
8=FIX.4.4|9=59|35=0|34=28|49=jcorderop|52=20220627-11:46:38.867|56=LMXBDM|10=176|
8=FIX.4.4|9=60|35=0|49=LMXBDM|56=jcorderop|34=182|52=20220627-11:47:04.755|10=207|
8=FIX.4.4|9=59|35=0|34=29|49=jcorderop|52=20220627-11:47:08.866|56=LMXBDM|10=174|
8=FIX.4.4|9=60|35=0|49=LMXBDM|56=jcorderop|34=183|52=20220627-11:47:34.756|10=212|
8=FIX.4.4|9=59|35=0|34=30|49=jcorderop|52=20220627-11:47:38.861|56=LMXBDM|10=164|
8=FIX.4.4|9=60|35=0|49=LMXBDM|56=jcorderop|34=184|52=20220627-11:48:04.756|10=211|
8=FIX.4.4|9=59|35=0|34=31|49=jcorderop|52=20220627-11:48:08.859|56=LMXBDM|10=170|
8=FIX.4.4|9=60|35=0|49=LMXBDM|56=jcorderop|34=185|52=20220627-11:48:34.756|10=215|
8=FIX.4.4|9=59|35=0|34=32|49=jcorderop|52=20220627-11:48:38.860|56=LMXBDM|10=166|
8=FIX.4.4|9=60|35=0|49=LMXBDM|56=jcorderop|34=186|52=20220627-11:49:04.758|10=216|
8=FIX.4.4|9=59|35=0|34=33|49=jcorderop|52=20220627-11:49:08.867|56=LMXBDM|10=172|
8=FIX.4.4|9=60|35=0|49=LMXBDM|56=jcorderop|34=187|52=20220627-11:49:34.758|10=220|
8=FIX.4.4|9=59|35=0|34=34|49=jcorderop|52=20220627-11:49:38.859|56=LMXBDM|10=177|
8=FIX.4.4|9=60|35=0|49=LMXBDM|56=jcorderop|34=188|52=20220627-11:50:04.759|10=211|
8=FIX.4.4|9=59|35=0|34=35|49=jcorderop|52=20220627-11:50:08.859|56=LMXBDM|10=167|
8=FIX.4.4|9=60|35=0|49=LMXBDM|56=jcorderop|34=189|52=20220627-11:50:34.759|10=215|
8=FIX.4.4|9=59|35=0|34=36|49=jcorderop|52=20220627-11:50:38.862|56=LMXBDM|10=165|
8=FIX.4.4|9=60|35=0|49=LMXBDM|56=jcorderop|34=190|52=20220627-11:51:04.759|10=205|
8=FIX.4.4|9=59|35=0|34=37|49=jcorderop|52=20220627-11:51:08.867|56=LMXBDM|10=169|
8=FIX.4.4|9=60|35=0|49=LMXBDM|56=jcorderop|34=191|52=20220627-11:51:34.760|10=201|
8=FIX.4.4|9=59|35=0|34=38|49=jcorderop|52=20220627-11:51:38.869|56=LMXBDM|10=175|
8=FIX.4.4|9=60|35=0|49=LMXBDM|56=jcorderop|34=192|52=20220627-11:52:04.760|10=200|
8=FIX.4.4|9=59|35=0|34=39|49=jcorderop|52=20220627-11:52:08.868|56=LMXBDM|10=173|
8=FIX.4.4|9=60|35=0|49=LMXBDM|56=jcorderop|34=193|52=20220627-11:52:34.760|10=204|
8=FIX.4.4|9=59|35=0|34=40|49=jcorderop|52=20220627-11:52:39.859|56=LMXBDM|10=169|
8=FIX.4.4|9=60|35=0|49=LMXBDM|56=jcorderop|34=194|52=20220627-11:53:04.760|10=203|
8=FIX.4.4|9=59|35=0|34=41|49=jcorderop|52=20220627-11:53:09.861|56=LMXBDM|10=161|
8=FIX.4.4|9=60|35=0|49=LMXBDM|56=jcorderop|34=195|52=20220627-11:53:34.762|10=209|
8=FIX.4.4|9=59|35=0|34=42|49=jcorderop|52=20220627-11:53:39.859|56=LMXBDM|10=172|
8=FIX.4.4|9=60|35=0|49=LMXBDM|56=jcorderop|34=196|52=20220627-11:54:04.763|10=209|
8=FIX.4.4|9=59|35=0|34=43|49=jcorderop|52=20220627-11:54:09.864|56=LMXBDM|10=167|
8=FIX.4.4|9=60|35=0|49=LMXBDM|56=jcorderop|34=197|52=20220627-11:54:34.763|10=213|
8=FIX.4.4|9=59|35=0|34=44|49=jcorderop|52=20220627-11:54:39.859|56=LMXBDM|10=175|
8=FIX.4.4|9=60|35=0|49=LMXBDM|56=jcorderop|34=198|52=20220627-11:55:04.764|10=213|
8=FIX.4.4|9=59|35=0|34=45|49=jcorderop|52=20220627-11:55:09.858|56=LMXBDM|10=173|
8=FIX.4.4|9=60|35=0|49=LMXBDM|56=jcorderop|34=199|52=20220627-11:55:34.764|10=217|
8=FIX.4.4|9=59|35=0|34=46|49=jcorderop|52=20220627-11:55:39.865|56=LMXBDM|10=175|
8=FIX.4.4|9=60|35=0|49=LMXBDM|56=jcorderop|34=200|52=20220627-11:56:04.765|10=199|
8=FIX.4.4|9=59|35=0|34=47|49=jcorderop|52=20220627-11:56:09.859|56=LMXBDM|10=177|
8=FIX.4.4|9=60|35=0|49=LMXBDM|56=jcorderop|34=201|52=20220627-11:56:34.766|10=204|
8=FIX.4.4|9=59|35=0|34=48|49=jcorderop|52=20220627-11:56:39.865|56=LMXBDM|10=178|
8=FIX.4.4|9=60|35=0|49=LMXBDM|56=jcorderop|34=202|52=20220627-11:57:04.766|10=203|
8=FIX.4.4|9=59|35=0|34=49|49=jcorderop|52=20220627-11:57:09.861|56=LMXBDM|10=173|
8=FIX.4.4|9=60|35=0|49=LMXBDM|56=jcorderop|34=203|52=20220627-11:57:34.766|10=207|
8=FIX.4.4|9=59|35=0|34=50|49=jcorderop|52=20220627-11:57:39.866|56=LMXBDM|10=173|
8=FIX.4.4|9=60|35=0|49=LMXBDM|56=jcorderop|34=204|52=20220627-11:58:04.766|10=206|
8=FIX.4.4|9=59|35=0|34=51|49=jcorderop|52=20220627-11:58:09.869|56=LMXBDM|10=175|
8=FIX.4.4|9=60|35=0|49=LMXBDM|56=jcorderop|34=205|52=20220627-11:58:34.767|10=211|
8=FIX.4.4|9=59|35=0|34=52|49=jcorderop|52=20220627-11:58:40.860|56=LMXBDM|10=162|
8=FIX.4.4|9=60|35=0|49=LMXBDM|56=jcorderop|34=206|52=20220627-11:59:04.767|10=210|
8=FIX.4.4|9=59|35=0|34=53|49=jcorderop|52=20220627-11:59:10.869|56=LMXBDM|10=170|
8=FIX.4.4|9=60|35=0|49=LMXBDM|56=jcorderop|34=207|52=20220627-11:59:34.768|10=215|
8=FIX.4.4|9=59|35=0|34=54|49=jcorderop|52=20220627-11:59:41.857|56=LMXBDM|10=172|
8=FIX.4.4|9=60|35=0|49=LMXBDM|56=jcorderop|34=208|52=20220627-12:00:04.769|10=201|
8=FIX.4.4|9=59|35=0|34=55|49=jcorderop|52=20220627-12:00:11.869|56=LMXBDM|10=160|
8=FIX.4.4|9=60|35=0|49=LMXBDM|56=jcorderop|34=209|52=20220627-12:00:34.770|10=197|
8=FIX.4.4|9=59|35=0|34=56|49=jcorderop|52=20220627-12:00:41.869|56=LMXBDM|10=164|
8=FIX.4.4|9=60|35=0|49=LMXBDM|56=jcorderop|34=210|52=20220627-12:01:04.770|10=187|
8=FIX.4.4|9=59|35=0|34=57|49=jcorderop|52=20220627-12:01:11.874|56=LMXBDM|10=159|
8=FIX.4.4|9=60|35=0|49=LMXBDM|56=jcorderop|34=211|52=20220627-12:01:34.770|10=191|
8=FIX.4.4|9=59|35=0|34=58|49=jcorderop|52=20220627-12:01:41.869|56=LMXBDM|10=167|
8=FIX.4.4|9=60|35=0|49=LMXBDM|56=jcorderop|34=212|52=20220627-12:02:04.770|10=190|
8=FIX.4.4|9=59|35=0|34=59|49=jcorderop|52=20220627-12:02:12.857|56=LMXBDM|10=164|
8=FIX.4.4|9=60|35=0|49=LMXBDM|56=jcorderop|34=213|52=20220627-12:02:34.771|10=195|
8=FIX.4.4|9=59|35=0|34=60|49=jcorderop|52=20220627-12:02:42.862|56=LMXBDM|10=155|
8=FIX.4.4|9=60|35=0|49=LMXBDM|56=jcorderop|34=214|52=20220627-12:03:04.771|10=194|
8=FIX.4.4|9=59|35=0|34=61|49=jcorderop|52=20220627-12:03:12.869|56=LMXBDM|10=161|
8=FIX.4.4|9=60|35=0|49=LMXBDM|56=jcorderop|34=215|52=20220627-12:03:34.772|10=199|
8=FIX.4.4|9=59|35=0|34=62|49=jcorderop|52=20220627-12:03:42.870|56=LMXBDM|10=157|
8=FIX.4.4|9=60|35=0|49=LMXBDM|56=jcorderop|34=216|52=20220627-12:04:04.772|10=198|
8=FIX.4.4|9=59|35=0|34=63|49=jcorderop|52=20220627-12:04:12.863|56=LMXBDM|10=158|
8=FIX.4.4|9=60|35=0|49=LMXBDM|56=jcorderop|34=217|52=20220627-12:04:34.773|10=203|
8=FIX.4.4|9=59|35=0|34=64|49=jcorderop|52=20220627-12:04:42.865|56=LMXBDM|10=164|
8=FIX.4.4|9=60|35=0|49=LMXBDM|56=jcorderop|34=218|52=20220627-12:05:04.773|10=202|
8=FIX.4.4|9=59|35=0|34=65|49=jcorderop|52=20220627-12:05:12.860|56=LMXBDM|10=158|
8=FIX.4.4|9=60|35=0|49=LMXBDM|56=jcorderop|34=219|52=20220627-12:05:34.774|10=207|
8=FIX.4.4|9=59|35=0|34=66|49=jcorderop|52=20220627-12:05:42.857|56=LMXBDM|10=168|
8=FIX.4.4|9=60|35=0|49=LMXBDM|56=jcorderop|34=220|52=20220627-12:06:04.774|10=197|
8=FIX.4.4|9=59|35=0|34=67|49=jcorderop|52=20220627-12:06:12.863|56=LMXBDM|10=164|
8=FIX.4.4|9=60|35=0|49=LMXBDM|56=jcorderop|34=221|52=20220627-12:06:34.775|10=202|
8=FIX.4.4|9=59|35=0|34=68|49=jcorderop|52=20220627-12:06:42.876|56=LMXBDM|10=172|
8=FIX.4.4|9=60|35=0|49=LMXBDM|56=jcorderop|34=222|52=20220627-12:07:04.776|10=202|
8=FIX.4.4|9=59|35=0|34=69|49=jcorderop|52=20220627-12:07:13.864|56=LMXBDM|10=169|
8=FIX.4.4|9=60|35=0|49=LMXBDM|56=jcorderop|34=223|52=20220627-12:07:34.777|10=207|
8=FIX.4.4|9=59|35=0|34=70|49=jcorderop|52=20220627-12:07:43.863|56=LMXBDM|10=163|
8=FIX.4.4|9=60|35=0|49=LMXBDM|56=jcorderop|34=224|52=20220627-12:08:04.777|10=206|
8=FIX.4.4|9=59|35=0|34=71|49=jcorderop|52=20220627-12:08:13.861|56=LMXBDM|10=160|
8=FIX.4.4|9=60|35=0|49=LMXBDM|56=jcorderop|34=225|52=20220627-12:08:34.778|10=211|
8=FIX.4.4|9=59|35=0|34=72|49=jcorderop|52=20220627-12:08:43.855|56=LMXBDM|10=167|
8=FIX.4.4|9=60|35=0|49=LMXBDM|56=jcorderop|34=226|52=20220627-12:09:04.778|10=210|
8=FIX.4.4|9=59|35=0|34=73|49=jcorderop|52=20220627-12:09:13.866|56=LMXBDM|10=168|
8=FIX.4.4|9=60|35=0|49=LMXBDM|56=jcorderop|34=227|52=20220627-12:09:34.778|10=214|
8=FIX.4.4|9=59|35=0|34=74|49=jcorderop|52=20220627-12:09:43.861|56=LMXBDM|10=167|
8=FIX.4.4|9=60|35=0|49=LMXBDM|56=jcorderop|34=228|52=20220627-12:10:04.778|10=204|
8=FIX.4.4|9=59|35=0|34=75|49=jcorderop|52=20220627-12:10:13.860|56=LMXBDM|10=156|
8=FIX.4.4|9=60|35=0|49=LMXBDM|56=jcorderop|34=229|52=20220627-12:10:34.779|10=209|
8=FIX.4.4|9=59|35=0|34=76|49=jcorderop|52=20220627-12:10:43.865|56=LMXBDM|10=165|
8=FIX.4.4|9=60|35=0|49=LMXBDM|56=jcorderop|34=230|52=20220627-12:11:04.780|10=191|
8=FIX.4.4|9=59|35=0|34=77|49=jcorderop|52=20220627-12:11:13.867|56=LMXBDM|10=166|
8=FIX.4.4|9=60|35=0|49=LMXBDM|56=jcorderop|34=231|52=20220627-12:11:34.782|10=197|
8=FIX.4.4|9=59|35=0|34=78|49=jcorderop|52=20220627-12:11:43.860|56=LMXBDM|10=163|
8=FIX.4.4|9=60|35=0|49=LMXBDM|56=jcorderop|34=232|52=20220627-12:12:04.783|10=197|
8=FIX.4.4|9=59|35=0|34=79|49=jcorderop|52=20220627-12:12:13.870|56=LMXBDM|10=163|
8=FIX.4.4|9=60|35=0|49=LMXBDM|56=jcorderop|34=233|52=20220627-12:12:34.784|10=202|
8=FIX.4.4|9=59|35=0|34=80|49=jcorderop|52=20220627-12:12:43.869|56=LMXBDM|10=166|
8=FIX.4.4|9=60|35=0|49=LMXBDM|56=jcorderop|34=234|52=20220627-12:13:04.785|10=202|
8=FIX.4.4|9=59|35=0|34=81|49=jcorderop|52=20220627-12:13:13.860|56=LMXBDM|10=156|
8=FIX.4.4|9=60|35=0|49=LMXBDM|56=jcorderop|34=235|52=20220627-12:13:34.785|10=206|
8=FIX.4.4|9=59|35=0|34=82|49=jcorderop|52=20220627-12:13:43.865|56=LMXBDM|10=165|
8=FIX.4.4|9=60|35=0|49=LMXBDM|56=jcorderop|34=236|52=20220627-12:14:04.785|10=205|
8=FIX.4.4|9=59|35=0|34=83|49=jcorderop|52=20220627-12:14:13.859|56=LMXBDM|10=167|
8=FIX.4.4|9=60|35=0|49=LMXBDM|56=jcorderop|34=237|52=20220627-12:14:34.785|10=209|
8=FIX.4.4|9=59|35=0|34=84|49=jcorderop|52=20220627-12:14:43.860|56=LMXBDM|10=163|
8=FIX.4.4|9=60|35=0|49=LMXBDM|56=jcorderop|34=238|52=20220627-12:15:04.786|10=209|
8=FIX.4.4|9=59|35=0|34=85|49=jcorderop|52=20220627-12:15:13.855|56=LMXBDM|10=166|
8=FIX.4.4|9=60|35=0|49=LMXBDM|56=jcorderop|34=239|52=20220627-12:15:34.786|10=213|
8=FIX.4.4|9=59|35=0|34=86|49=jcorderop|52=20220627-12:15:43.866|56=LMXBDM|10=172|
8=FIX.4.4|9=60|35=0|49=LMXBDM|56=jcorderop|34=240|52=20220627-12:16:04.786|10=203|
8=FIX.4.4|9=59|35=0|34=87|49=jcorderop|52=20220627-12:16:13.863|56=LMXBDM|10=168|
8=FIX.4.4|9=60|35=0|49=LMXBDM|56=jcorderop|34=241|52=20220627-12:16:34.787|10=208|
8=FIX.4.4|9=59|35=0|34=88|49=jcorderop|52=20220627-12:16:43.859|56=LMXBDM|10=177|
8=FIX.4.4|9=60|35=0|49=LMXBDM|56=jcorderop|34=242|52=20220627-12:17:04.788|10=208|
8=FIX.4.4|9=59|35=0|34=89|49=jcorderop|52=20220627-12:17:13.863|56=LMXBDM|10=171|
8=FIX.4.4|9=60|35=0|49=LMXBDM|56=jcorderop|34=243|52=20220627-12:17:34.789|10=213|
8=FIX.4.4|9=59|35=0|34=90|49=jcorderop|52=20220627-12:17:43.867|56=LMXBDM|10=170|
8=FIX.4.4|9=60|35=0|49=LMXBDM|56=jcorderop|34=244|52=20220627-12:18:04.790|10=204|
8=FIX.4.4|9=59|35=0|34=91|49=jcorderop|52=20220627-12:18:13.866|56=LMXBDM|10=168|
8=FIX.4.4|9=60|35=0|49=LMXBDM|56=jcorderop|34=245|52=20220627-12:18:34.790|10=208|
8=FIX.4.4|9=59|35=0|34=92|49=jcorderop|52=20220627-12:18:43.863|56=LMXBDM|10=169|
8=FIX.4.4|9=60|35=0|49=LMXBDM|56=jcorderop|34=246|52=20220627-12:19:04.791|10=208|
8=FIX.4.4|9=59|35=0|34=93|49=jcorderop|52=20220627-12:19:13.865|56=LMXBDM|10=170|
8=FIX.4.4|9=60|35=0|49=LMXBDM|56=jcorderop|34=247|52=20220627-12:19:34.792|10=213|
8=FIX.4.4|9=59|35=0|34=94|49=jcorderop|52=20220627-12:19:43.865|56=LMXBDM|10=174|
8=FIX.4.4|9=60|35=0|49=LMXBDM|56=jcorderop|34=248|52=20220627-12:20:04.792|10=203|
8=FIX.4.4|9=59|35=0|34=95|49=jcorderop|52=20220627-12:20:13.859|56=LMXBDM|10=167|
8=FIX.4.4|9=60|35=0|49=LMXBDM|56=jcorderop|34=249|52=20220627-12:20:34.793|10=208|
8=FIX.4.4|9=59|35=0|34=96|49=jcorderop|52=20220627-12:20:43.856|56=LMXBDM|10=168|
8=FIX.4.4|9=60|35=0|49=LMXBDM|56=jcorderop|34=250|52=20220627-12:21:04.793|10=198|
8=FIX.4.4|9=59|35=0|34=97|49=jcorderop|52=20220627-12:21:13.859|56=LMXBDM|10=170|
8=FIX.4.4|9=60|35=0|49=LMXBDM|56=jcorderop|34=251|52=20220627-12:21:34.794|10=203|
8=FIX.4.4|9=59|35=0|34=98|49=jcorderop|52=20220627-12:21:43.860|56=LMXBDM|10=166|
8=FIX.4.4|9=60|35=0|49=LMXBDM|56=jcorderop|34=252|52=20220627-12:22:04.795|10=203|
8=FIX.4.4|9=59|35=0|34=99|49=jcorderop|52=20220627-12:22:13.868|56=LMXBDM|10=173|
8=FIX.4.4|9=60|35=0|49=LMXBDM|56=jcorderop|34=253|52=20220627-12:22:34.797|10=209|
8=FIX.4.4|9=60|35=0|34=100|49=jcorderop|52=20220627-12:22:43.867|56=LMXBDM|10=198|
8=FIX.4.4|9=60|35=0|49=LMXBDM|56=jcorderop|34=254|52=20220627-12:23:04.797|10=208|
8=FIX.4.4|9=60|35=0|34=101|49=jcorderop|52=20220627-12:23:13.859|56=LMXBDM|10=198|
8=FIX.4.4|9=60|35=0|49=LMXBDM|56=jcorderop|34=255|52=20220627-12:23:34.798|10=213|
8=FIX.4.4|9=60|35=0|34=102|49=jcorderop|52=20220627-12:23:43.857|56=LMXBDM|10=200|
8=FIX.4.4|9=60|35=0|49=LMXBDM|56=jcorderop|34=256|52=20220627-12:24:04.799|10=213|
8=FIX.4.4|9=60|35=0|34=103|49=jcorderop|52=20220627-12:24:13.860|56=LMXBDM|10=193|
8=FIX.4.4|9=60|35=0|49=LMXBDM|56=jcorderop|34=257|52=20220627-12:24:34.799|10=217|
8=FIX.4.4|9=60|35=0|34=104|49=jcorderop|52=20220627-12:24:43.860|56=LMXBDM|10=197|
8=FIX.4.4|9=60|35=0|49=LMXBDM|56=jcorderop|34=258|52=20220627-12:25:04.799|10=216|
8=FIX.4.4|9=60|35=0|34=105|49=jcorderop|52=20220627-12:25:13.867|56=LMXBDM|10=203|
8=FIX.4.4|9=60|35=0|49=LMXBDM|56=jcorderop|34=259|52=20220627-12:25:34.799|10=220|
8=FIX.4.4|9=60|35=0|34=106|49=jcorderop|52=20220627-12:25:43.865|56=LMXBDM|10=205|
8=FIX.4.4|9=60|35=0|49=LMXBDM|56=jcorderop|34=260|52=20220627-12:26:04.800|10=193|
8=FIX.4.4|9=60|35=0|34=107|49=jcorderop|52=20220627-12:26:13.860|56=LMXBDM|10=199|
8=FIX.4.4|9=60|35=0|49=LMXBDM|56=jcorderop|34=261|52=20220627-12:26:34.801|10=198|
8=FIX.4.4|9=60|35=0|34=108|49=jcorderop|52=20220627-12:26:43.859|56=LMXBDM|10=211|
8=FIX.4.4|9=60|35=0|49=LMXBDM|56=jcorderop|34=262|52=20220627-12:27:04.801|10=197|
8=FIX.4.4|9=60|35=0|34=109|49=jcorderop|52=20220627-12:27:13.860|56=LMXBDM|10=202|
8=FIX.4.4|9=60|35=0|49=LMXBDM|56=jcorderop|34=263|52=20220627-12:27:34.802|10=202|
8=FIX.4.4|9=60|35=0|34=110|49=jcorderop|52=20220627-12:27:43.865|56=LMXBDM|10=202|
8=FIX.4.4|9=60|35=0|49=LMXBDM|56=jcorderop|34=264|52=20220627-12:28:04.802|10=201|
8=FIX.4.4|9=60|35=0|34=111|49=jcorderop|52=20220627-12:28:13.866|56=LMXBDM|10=202|
8=FIX.4.4|9=60|35=0|49=LMXBDM|56=jcorderop|34=265|52=20220627-12:28:34.803|10=206|
8=FIX.4.4|9=60|35=0|34=112|49=jcorderop|52=20220627-12:28:43.860|56=LMXBDM|10=200|
8=FIX.4.4|9=60|35=0|49=LMXBDM|56=jcorderop|34=266|52=20220627-12:29:04.804|10=206|
8=FIX.4.4|9=60|35=0|34=113|49=jcorderop|52=20220627-12:29:13.866|56=LMXBDM|10=205|
8=FIX.4.4|9=60|35=0|49=LMXBDM|56=jcorderop|34=267|52=20220627-12:29:34.805|10=211|
8=FIX.4.4|9=60|35=0|34=114|49=jcorderop|52=20220627-12:29:43.865|56=LMXBDM|10=208|
8=FIX.4.4|9=60|35=0|49=LMXBDM|56=jcorderop|34=268|52=20220627-12:30:04.806|10=202|
8=FIX.4.4|9=60|35=0|34=115|49=jcorderop|52=20220627-12:30:13.859|56=LMXBDM|10=201|
8=FIX.4.4|9=60|35=0|49=LMXBDM|56=jcorderop|34=269|52=20220627-12:30:34.806|10=206|
8=FIX.4.4|9=60|35=0|34=116|49=jcorderop|52=20220627-12:30:43.857|56=LMXBDM|10=203|
8=FIX.4.4|9=60|35=0|49=LMXBDM|56=jcorderop|34=270|52=20220627-12:31:04.806|10=196|
8=FIX.4.4|9=60|35=0|34=117|49=jcorderop|52=20220627-12:31:13.866|56=LMXBDM|10=202|
8=FIX.4.4|9=60|35=0|49=LMXBDM|56=jcorderop|34=271|52=20220627-12:31:34.807|10=201|
8=FIX.4.4|9=60|35=0|34=118|49=jcorderop|52=20220627-12:31:43.860|56=LMXBDM|10=200|
8=FIX.4.4|9=60|35=0|49=LMXBDM|56=jcorderop|34=272|52=20220627-12:32:04.807|10=200|
8=FIX.4.4|9=60|35=0|34=119|49=jcorderop|52=20220627-12:32:13.867|56=LMXBDM|10=206|
8=FIX.4.4|9=60|35=0|49=LMXBDM|56=jcorderop|34=273|52=20220627-12:32:34.807|10=204|
8=FIX.4.4|9=60|35=0|34=120|49=jcorderop|52=20220627-12:32:43.865|56=LMXBDM|10=199|
8=FIX.4.4|9=60|35=0|49=LMXBDM|56=jcorderop|34=274|52=20220627-12:33:04.808|10=204|
8=FIX.4.4|9=60|35=0|34=121|49=jcorderop|52=20220627-12:33:13.867|56=LMXBDM|10=200|
8=FIX.4.4|9=60|35=0|49=LMXBDM|56=jcorderop|34=275|52=20220627-12:33:34.809|10=209|
8=FIX.4.4|9=60|35=0|34=122|49=jcorderop|52=20220627-12:33:43.859|56=LMXBDM|10=205|
8=FIX.4.4|9=60|35=0|49=LMXBDM|56=jcorderop|34=276|52=20220627-12:34:04.809|10=208|
8=FIX.4.4|9=60|35=0|34=123|49=jcorderop|52=20220627-12:34:13.868|56=LMXBDM|10=204|
8=FIX.4.4|9=60|35=0|49=LMXBDM|56=jcorderop|34=277|52=20220627-12:34:34.810|10=204|
8=FIX.4.4|9=60|35=0|34=124|49=jcorderop|52=20220627-12:34:43.864|56=LMXBDM|10=204|
8=FIX.4.4|9=60|35=0|49=LMXBDM|56=jcorderop|34=278|52=20220627-12:35:04.811|10=204|
8=FIX.4.4|9=60|35=0|34=125|49=jcorderop|52=20220627-12:35:13.866|56=LMXBDM|10=205|
8=FIX.4.4|9=60|35=0|49=LMXBDM|56=jcorderop|34=279|52=20220627-12:35:34.812|10=209|
8=FIX.4.4|9=60|35=0|34=126|49=jcorderop|52=20220627-12:35:43.864|56=LMXBDM|10=207|
8=FIX.4.4|9=60|35=0|49=LMXBDM|56=jcorderop|34=280|52=20220627-12:36:04.812|10=199|
8=FIX.4.4|9=60|35=0|34=127|49=jcorderop|52=20220627-12:36:13.865|56=LMXBDM|10=207|
8=FIX.4.4|9=60|35=0|49=LMXBDM|56=jcorderop|34=281|52=20220627-12:36:34.812|10=203|
8=FIX.4.4|9=60|35=0|34=128|49=jcorderop|52=20220627-12:36:43.864|56=LMXBDM|10=210|
8=FIX.4.4|9=60|35=0|49=LMXBDM|56=jcorderop|34=282|52=20220627-12:37:04.813|10=203|
8=FIX.4.4|9=60|35=0|34=129|49=jcorderop|52=20220627-12:37:13.865|56=LMXBDM|10=210|
8=FIX.4.4|9=60|35=0|49=LMXBDM|56=jcorderop|34=283|52=20220627-12:37:34.814|10=208|
8=FIX.4.4|9=60|35=0|34=130|49=jcorderop|52=20220627-12:37:43.867|56=LMXBDM|10=207|
8=FIX.4.4|9=60|35=0|49=LMXBDM|56=jcorderop|34=284|52=20220627-12:38:04.814|10=207|
8=FIX.4.4|9=60|35=0|34=131|49=jcorderop|52=20220627-12:38:13.865|56=LMXBDM|10=204|
8=FIX.4.4|9=60|35=0|49=LMXBDM|56=jcorderop|34=285|52=20220627-12:38:34.814|10=211|
8=FIX.4.4|9=60|35=0|34=132|49=jcorderop|52=20220627-12:38:43.860|56=LMXBDM|10=203|
8=FIX.4.4|9=60|35=0|49=LMXBDM|56=jcorderop|34=286|52=20220627-12:39:04.815|10=211|
8=FIX.4.4|9=60|35=0|34=133|49=jcorderop|52=20220627-12:39:13.870|56=LMXBDM|10=203|
8=FIX.4.4|9=60|35=0|49=LMXBDM|56=jcorderop|34=287|52=20220627-12:39:34.815|10=215|
8=FIX.4.4|9=60|35=0|34=134|49=jcorderop|52=20220627-12:39:44.863|56=LMXBDM|10=210|
8=FIX.4.4|9=60|35=0|49=LMXBDM|56=jcorderop|34=288|52=20220627-12:40:04.815|10=205|
8=FIX.4.4|9=60|35=0|34=135|49=jcorderop|52=20220627-12:40:14.864|56=LMXBDM|10=201|
8=FIX.4.4|9=60|35=0|49=LMXBDM|56=jcorderop|34=289|52=20220627-12:40:34.815|10=209|
8=FIX.4.4|9=60|35=0|34=136|49=jcorderop|52=20220627-12:40:44.869|56=LMXBDM|10=210|
8=FIX.4.4|9=60|35=0|49=LMXBDM|56=jcorderop|34=290|52=20220627-12:41:04.816|10=200|
8=FIX.4.4|9=60|35=0|34=137|49=jcorderop|52=20220627-12:41:14.862|56=LMXBDM|10=202|
8=FIX.4.4|9=60|35=0|49=LMXBDM|56=jcorderop|34=291|52=20220627-12:41:34.817|10=205|
8=FIX.4.4|9=60|35=0|34=138|49=jcorderop|52=20220627-12:41:44.866|56=LMXBDM|10=210|
8=FIX.4.4|9=60|35=0|49=LMXBDM|56=jcorderop|34=292|52=20220627-12:42:04.818|10=205|
8=FIX.4.4|9=60|35=0|34=139|49=jcorderop|52=20220627-12:42:14.862|56=LMXBDM|10=205|
8=FIX.4.4|9=60|35=0|49=LMXBDM|56=jcorderop|34=293|52=20220627-12:42:34.818|10=209|
8=FIX.4.4|9=60|35=0|34=140|49=jcorderop|52=20220627-12:42:44.863|56=LMXBDM|10=201|
8=FIX.4.4|9=60|35=0|49=LMXBDM|56=jcorderop|34=294|52=20220627-12:43:04.819|10=209|
8=FIX.4.4|9=60|35=0|34=141|49=jcorderop|52=20220627-12:43:14.866|56=LMXBDM|10=203|
8=FIX.4.4|9=60|35=0|49=LMXBDM|56=jcorderop|34=295|52=20220627-12:43:34.819|10=213|
8=FIX.4.4|9=60|35=0|34=142|49=jcorderop|52=20220627-12:43:44.864|56=LMXBDM|10=205|
8=FIX.4.4|9=60|35=0|49=LMXBDM|56=jcorderop|34=296|52=20220627-12:44:04.819|10=212|
8=FIX.4.4|9=60|35=0|34=143|49=jcorderop|52=20220627-12:44:14.867|56=LMXBDM|10=207|
8=FIX.4.4|9=60|35=0|49=LMXBDM|56=jcorderop|34=297|52=20220627-12:44:34.819|10=216|
8=FIX.4.4|9=60|35=0|34=144|49=jcorderop|52=20220627-12:44:44.869|56=LMXBDM|10=213|
8=FIX.4.4|9=60|35=0|49=LMXBDM|56=jcorderop|34=298|52=20220627-12:45:04.820|10=207|
8=FIX.4.4|9=60|35=0|34=145|49=jcorderop|52=20220627-12:45:15.860|56=LMXBDM|10=204|
8=FIX.4.4|9=60|35=0|49=LMXBDM|56=jcorderop|34=299|52=20220627-12:45:34.821|10=212|
8=FIX.4.4|9=60|35=0|34=146|49=jcorderop|52=20220627-12:45:45.868|56=LMXBDM|10=216|
8=FIX.4.4|9=60|35=0|49=LMXBDM|56=jcorderop|34=300|52=20220627-12:46:04.822|10=194|
8=FIX.4.4|9=60|35=0|34=147|49=jcorderop|52=20220627-12:46:15.869|56=LMXBDM|10=216|
8=FIX.4.4|9=60|35=0|49=LMXBDM|56=jcorderop|34=301|52=20220627-12:46:34.823|10=199|
8=FIX.4.4|9=60|35=0|34=148|49=jcorderop|52=20220627-12:46:45.870|56=LMXBDM|10=212|
8=FIX.4.4|9=60|35=0|49=LMXBDM|56=jcorderop|34=302|52=20220627-12:47:04.824|10=199|
8=FIX.4.4|9=60|35=0|34=149|49=jcorderop|52=20220627-12:47:15.862|56=LMXBDM|10=212|
8=FIX.4.4|9=60|35=0|49=LMXBDM|56=jcorderop|34=303|52=20220627-12:47:34.824|10=203|
8=FIX.4.4|9=60|35=0|34=150|49=jcorderop|52=20220627-12:47:45.857|56=LMXBDM|10=211|
8=FIX.4.4|9=60|35=0|49=LMXBDM|56=jcorderop|34=304|52=20220627-12:48:04.824|10=202|
8=FIX.4.4|9=60|35=0|34=151|49=jcorderop|52=20220627-12:48:15.862|56=LMXBDM|10=206|
8=FIX.4.4|9=60|35=0|49=LMXBDM|56=jcorderop|34=305|52=20220627-12:48:34.825|10=207|
8=FIX.4.4|9=60|35=0|34=152|49=jcorderop|52=20220627-12:48:45.859|56=LMXBDM|10=216|
8=FIX.4.4|9=60|35=0|49=LMXBDM|56=jcorderop|34=306|52=20220627-12:49:04.827|10=208|
8=FIX.4.4|9=60|35=0|34=153|49=jcorderop|52=20220627-12:49:15.869|56=LMXBDM|10=216|
8=FIX.4.4|9=60|35=0|49=LMXBDM|56=jcorderop|34=307|52=20220627-12:49:34.827|10=212|
8=FIX.4.4|9=60|35=0|34=154|49=jcorderop|52=20220627-12:49:46.864|56=LMXBDM|10=216|
8=FIX.4.4|9=60|35=0|49=LMXBDM|56=jcorderop|34=308|52=20220627-12:50:04.827|10=202|
8=FIX.4.4|9=60|35=0|34=155|49=jcorderop|52=20220627-12:50:16.865|56=LMXBDM|10=207|
8=FIX.4.4|9=60|35=0|49=LMXBDM|56=jcorderop|34=309|52=20220627-12:50:34.828|10=207|
8=FIX.4.4|9=60|35=0|34=156|49=jcorderop|52=20220627-12:50:46.857|56=LMXBDM|10=212|
8=FIX.4.4|9=60|35=0|49=LMXBDM|56=jcorderop|34=310|52=20220627-12:51:04.829|10=198|
8=FIX.4.4|9=60|35=0|34=157|49=jcorderop|52=20220627-12:51:16.863|56=LMXBDM|10=208|
8=FIX.4.4|9=60|35=0|49=LMXBDM|56=jcorderop|34=311|52=20220627-12:51:34.829|10=202|
8=FIX.4.4|9=60|35=0|34=158|49=jcorderop|52=20220627-12:51:46.857|56=LMXBDM|10=215|
8=FIX.4.4|9=60|35=0|49=LMXBDM|56=jcorderop|34=312|52=20220627-12:52:04.830|10=193|
8=FIX.4.4|9=60|35=0|34=159|49=jcorderop|52=20220627-12:52:16.867|56=LMXBDM|10=215|
8=FIX.4.4|9=60|35=0|49=LMXBDM|56=jcorderop|34=313|52=20220627-12:52:34.831|10=198|
8=FIX.4.4|9=60|35=0|34=160|49=jcorderop|52=20220627-12:52:47.863|56=LMXBDM|10=207|
8=FIX.4.4|9=60|35=0|49=LMXBDM|56=jcorderop|34=314|52=20220627-12:53:04.831|10=197|
8=FIX.4.4|9=60|35=0|34=161|49=jcorderop|52=20220627-12:53:17.868|56=LMXBDM|10=211|
8=FIX.4.4|9=60|35=0|49=LMXBDM|56=jcorderop|34=315|52=20220627-12:53:34.832|10=202|
8=FIX.4.4|9=60|35=0|34=162|49=jcorderop|52=20220627-12:53:48.867|56=LMXBDM|10=215|
8=FIX.4.4|9=60|35=0|49=LMXBDM|56=jcorderop|34=316|52=20220627-12:54:04.832|10=201|
8=FIX.4.4|9=60|35=0|34=163|49=jcorderop|52=20220627-12:54:18.868|56=LMXBDM|10=215|
8=FIX.4.4|9=60|35=0|49=LMXBDM|56=jcorderop|34=317|52=20220627-12:54:34.832|10=205|
8=FIX.4.4|9=60|35=0|34=164|49=jcorderop|52=20220627-12:54:49.862|56=LMXBDM|10=214|
8=FIX.4.4|9=60|35=0|49=LMXBDM|56=jcorderop|34=318|52=20220627-12:55:04.834|10=206|
8=FIX.4.4|9=60|35=0|34=165|49=jcorderop|52=20220627-12:55:19.860|56=LMXBDM|10=211|
8=FIX.4.4|9=60|35=0|49=LMXBDM|56=jcorderop|34=319|52=20220627-12:55:34.834|10=210|
8=FIX.4.4|9=60|35=0|34=166|49=jcorderop|52=20220627-12:55:49.868|56=LMXBDM|10=223|
8=FIX.4.4|9=60|35=0|49=LMXBDM|56=jcorderop|34=320|52=20220627-12:56:04.835|10=201|
8=FIX.4.4|9=60|35=0|34=167|49=jcorderop|52=20220627-12:56:19.863|56=LMXBDM|10=217|
8=FIX.4.4|9=60|35=0|49=LMXBDM|56=jcorderop|34=321|52=20220627-12:56:34.836|10=206|
8=FIX.4.4|9=60|35=0|34=168|49=jcorderop|52=20220627-12:56:49.876|56=LMXBDM|10=225|
8=FIX.4.4|9=60|35=0|49=LMXBDM|56=jcorderop|34=322|52=20220627-12:57:04.837|10=206|
8=FIX.4.4|9=60|35=0|34=169|49=jcorderop|52=20220627-12:57:20.867|56=LMXBDM|10=216|
8=FIX.4.4|9=60|35=0|49=LMXBDM|56=jcorderop|34=323|52=20220627-12:57:34.837|10=210|
8=FIX.4.4|9=60|35=0|34=170|49=jcorderop|52=20220627-12:57:50.870|56=LMXBDM|10=205|
8=FIX.4.4|9=60|35=0|49=LMXBDM|56=jcorderop|34=324|52=20220627-12:58:04.837|10=209|
8=FIX.4.4|9=60|35=0|34=171|49=jcorderop|52=20220627-12:58:20.872|56=LMXBDM|10=206|
8=FIX.4.4|9=60|35=0|49=LMXBDM|56=jcorderop|34=325|52=20220627-12:58:34.838|10=214|
8=FIX.4.4|9=60|35=0|34=172|49=jcorderop|52=20220627-12:58:50.869|56=LMXBDM|10=216|
8=FIX.4.4|9=60|35=0|49=LMXBDM|56=jcorderop|34=326|52=20220627-12:59:04.839|10=214|
8=FIX.4.4|9=60|35=0|34=173|49=jcorderop|52=20220627-12:59:20.867|56=LMXBDM|10=213|
8=FIX.4.4|9=60|35=0|49=LMXBDM|56=jcorderop|34=327|52=20220627-12:59:34.840|10=210|
8=FIX.4.4|9=60|35=0|34=174|49=jcorderop|52=20220627-12:59:50.860|56=LMXBDM|10=210|
8=FIX.4.4|9=60|35=0|49=LMXBDM|56=jcorderop|34=328|52=20220627-13:00:04.840|10=195|
8=FIX.4.4|9=60|35=0|34=175|49=jcorderop|52=20220627-13:00:20.859|56=LMXBDM|10=203|
8=FIX.4.4|9=60|35=0|49=LMXBDM|56=jcorderop|34=329|52=20220627-13:00:34.841|10=200|
8=FIX.4.4|9=60|35=0|34=176|49=jcorderop|52=20220627-13:00:50.876|56=LMXBDM|10=206|
8=FIX.4.4|9=60|35=0|49=LMXBDM|56=jcorderop|34=330|52=20220627-13:01:04.842|10=191|
8=FIX.4.4|9=60|35=0|34=177|49=jcorderop|52=20220627-13:01:21.868|56=LMXBDM|10=207|
8=FIX.4.4|9=60|35=0|49=LMXBDM|56=jcorderop|34=331|52=20220627-13:01:34.842|10=195|
8=FIX.4.4|9=60|35=0|34=178|49=jcorderop|52=20220627-13:01:51.863|56=LMXBDM|10=206|
8=FIX.4.4|9=60|35=0|49=LMXBDM|56=jcorderop|34=332|52=20220627-13:02:04.843|10=195|
8=FIX.4.4|9=60|35=0|34=179|49=jcorderop|52=20220627-13:02:21.865|56=LMXBDM|10=207|
8=FIX.4.4|9=60|35=0|49=LMXBDM|56=jcorderop|34=333|52=20220627-13:02:34.843|10=199|
8=FIX.4.4|9=60|35=0|34=180|49=jcorderop|52=20220627-13:02:51.857|56=LMXBDM|10=203|
8=FIX.4.4|9=60|35=0|49=LMXBDM|56=jcorderop|34=334|52=20220627-13:03:04.844|10=199|
8=FIX.4.4|9=60|35=0|34=181|49=jcorderop|52=20220627-13:03:21.871|56=LMXBDM|10=198|
8=FIX.4.4|9=60|35=0|49=LMXBDM|56=jcorderop|34=335|52=20220627-13:03:34.844|10=203|
8=FIX.4.4|9=60|35=0|34=182|49=jcorderop|52=20220627-13:03:51.866|56=LMXBDM|10=206|
8=FIX.4.4|9=60|35=0|49=LMXBDM|56=jcorderop|34=336|52=20220627-13:04:04.844|10=202|
8=FIX.4.4|9=60|35=0|34=183|49=jcorderop|52=20220627-13:04:22.862|56=LMXBDM|10=202|
8=FIX.4.4|9=60|35=0|49=LMXBDM|56=jcorderop|34=337|52=20220627-13:04:34.844|10=206|
8=FIX.4.4|9=60|35=0|34=184|49=jcorderop|52=20220627-13:04:52.864|56=LMXBDM|10=208|
8=FIX.4.4|9=60|35=0|49=LMXBDM|56=jcorderop|34=338|52=20220627-13:05:04.845|10=206|
8=FIX.4.4|9=60|35=0|34=185|49=jcorderop|52=20220627-13:05:22.855|56=LMXBDM|10=207|
8=FIX.4.4|9=60|35=0|49=LMXBDM|56=jcorderop|34=339|52=20220627-13:05:34.846|10=211|
8=FIX.4.4|9=60|35=0|34=186|49=jcorderop|52=20220627-13:05:52.870|56=LMXBDM|10=208|
8=FIX.4.4|9=60|35=0|49=LMXBDM|56=jcorderop|34=340|52=20220627-13:06:04.847|10=202|
8=FIX.4.4|9=60|35=0|34=187|49=jcorderop|52=20220627-13:06:22.869|56=LMXBDM|10=215|
8=FIX.4.4|9=60|35=0|49=LMXBDM|56=jcorderop|34=341|52=20220627-13:06:34.848|10=207|
8=FIX.4.4|9=60|35=0|34=188|49=jcorderop|52=20220627-13:06:52.865|56=LMXBDM|10=215|
8=FIX.4.4|9=60|35=0|49=LMXBDM|56=jcorderop|34=342|52=20220627-13:07:04.848|10=206|
8=FIX.4.4|9=60|35=0|34=189|49=jcorderop|52=20220627-13:07:22.860|56=LMXBDM|10=209|
8=FIX.4.4|9=60|35=0|49=LMXBDM|56=jcorderop|34=343|52=20220627-13:07:34.848|10=210|
8=FIX.4.4|9=60|35=0|34=190|49=jcorderop|52=20220627-13:07:52.855|56=LMXBDM|10=208|
8=FIX.4.4|9=60|35=0|49=LMXBDM|56=jcorderop|34=344|52=20220627-13:08:04.849|10=210|
8=FIX.4.4|9=60|35=0|34=191|49=jcorderop|52=20220627-13:08:22.863|56=LMXBDM|10=206|
8=FIX.4.4|9=60|35=0|49=LMXBDM|56=jcorderop|34=345|52=20220627-13:08:34.850|10=206|
8=FIX.4.4|9=60|35=0|34=192|49=jcorderop|52=20220627-13:08:52.863|56=LMXBDM|10=210|
8=FIX.4.4|9=60|35=0|49=LMXBDM|56=jcorderop|34=346|52=20220627-13:09:04.850|10=205|
8=FIX.4.4|9=60|35=0|34=193|49=jcorderop|52=20220627-13:09:22.869|56=LMXBDM|10=215|
8=FIX.4.4|9=60|35=0|49=LMXBDM|56=jcorderop|34=347|52=20220627-13:09:34.851|10=210|
8=FIX.4.4|9=60|35=0|34=194|49=jcorderop|52=20220627-13:09:52.864|56=LMXBDM|10=214|
8=FIX.4.4|9=60|35=0|49=LMXBDM|56=jcorderop|34=348|52=20220627-13:10:04.852|10=201|
8=FIX.4.4|9=60|35=0|34=195|49=jcorderop|52=20220627-13:10:22.860|56=LMXBDM|10=200|
8=FIX.4.4|9=60|35=0|49=LMXBDM|56=jcorderop|34=349|52=20220627-13:10:34.854|10=207|
8=FIX.4.4|9=60|35=0|34=196|49=jcorderop|52=20220627-13:10:52.858|56=LMXBDM|10=211|
8=FIX.4.4|9=60|35=0|49=LMXBDM|56=jcorderop|34=350|52=20220627-13:11:04.854|10=197|
8=FIX.4.4|9=60|35=0|34=197|49=jcorderop|52=20220627-13:11:22.860|56=LMXBDM|10=203|
8=FIX.4.4|9=60|35=0|49=LMXBDM|56=jcorderop|34=351|52=20220627-13:11:34.854|10=201|
8=FIX.4.4|9=60|35=0|34=198|49=jcorderop|52=20220627-13:11:52.876|56=LMXBDM|10=214|
8=FIX.4.4|9=60|35=0|49=LMXBDM|56=jcorderop|34=352|52=20220627-13:12:04.856|10=202|
8=FIX.4.4|9=60|35=0|34=199|49=jcorderop|52=20220627-13:12:22.871|56=LMXBDM|10=208|
8=FIX.4.4|9=60|35=0|49=LMXBDM|56=jcorderop|34=353|52=20220627-13:12:34.856|10=206|
8=FIX.4.4|9=60|35=0|34=200|49=jcorderop|52=20220627-13:12:53.865|56=LMXBDM|10=198|
8=FIX.4.4|9=60|35=0|49=LMXBDM|56=jcorderop|34=354|52=20220627-13:13:04.856|10=205|
8=FIX.4.4|9=60|35=0|34=201|49=jcorderop|52=20220627-13:13:23.865|56=LMXBDM|10=197|
8=FIX.4.4|9=60|35=0|49=LMXBDM|56=jcorderop|34=355|52=20220627-13:13:34.857|10=210|
8=FIX.4.4|9=60|35=0|34=202|49=jcorderop|52=20220627-13:13:53.869|56=LMXBDM|10=205|
8=FIX.4.4|9=60|35=0|49=LMXBDM|56=jcorderop|34=356|52=20220627-13:14:04.859|10=211|
8=FIX.4.4|9=60|35=0|34=203|49=jcorderop|52=20220627-13:14:23.866|56=LMXBDM|10=201|
8=FIX.4.4|9=60|35=0|49=LMXBDM|56=jcorderop|34=357|52=20220627-13:14:34.860|10=207|
8=FIX.4.4|9=60|35=0|34=204|49=jcorderop|52=20220627-13:14:53.857|56=LMXBDM|10=205|
8=FIX.4.4|9=60|35=0|49=LMXBDM|56=jcorderop|34=358|52=20220627-13:15:04.860|10=206|
8=FIX.4.4|9=60|35=0|34=205|49=jcorderop|52=20220627-13:15:23.869|56=LMXBDM|10=207|
8=FIX.4.4|9=60|35=0|49=LMXBDM|56=jcorderop|34=359|52=20220627-13:15:34.861|10=211|
8=FIX.4.4|9=60|35=0|34=206|49=jcorderop|52=20220627-13:15:53.866|56=LMXBDM|10=208|
8=FIX.4.4|9=60|35=0|49=LMXBDM|56=jcorderop|34=360|52=20220627-13:16:04.861|10=201|
8=FIX.4.4|9=60|35=0|34=207|49=jcorderop|52=20220627-13:16:23.863|56=LMXBDM|10=204|
8=FIX.4.4|9=60|35=0|49=LMXBDM|56=jcorderop|34=361|52=20220627-13:16:34.862|10=206|
8=FIX.4.4|9=60|35=0|34=208|49=jcorderop|52=20220627-13:16:53.870|56=LMXBDM|10=206|
8=FIX.4.4|9=60|35=0|49=LMXBDM|56=jcorderop|34=362|52=20220627-13:17:04.862|10=205|
8=FIX.4.4|9=60|35=0|34=209|49=jcorderop|52=20220627-13:17:24.881|56=LMXBDM|10=208|
8=FIX.4.4|9=60|35=0|49=LMXBDM|56=jcorderop|34=363|52=20220627-13:17:34.863|10=210|
8=FIX.4.4|9=60|35=0|34=210|49=jcorderop|52=20220627-13:17:55.867|56=LMXBDM|10=208|
8=FIX.4.4|9=60|35=0|49=LMXBDM|56=jcorderop|34=364|52=20220627-13:18:04.863|10=209|
8=FIX.4.4|9=60|35=0|34=211|49=jcorderop|52=20220627-13:18:25.865|56=LMXBDM|10=205|
8=FIX.4.4|9=60|35=0|49=LMXBDM|56=jcorderop|34=365|52=20220627-13:18:34.865|10=215|
8=FIX.4.4|9=60|35=0|34=212|49=jcorderop|52=20220627-13:18:55.868|56=LMXBDM|10=212|
8=FIX.4.4|9=60|35=5|34=213|49=jcorderop|52=20220627-13:18:59.864|56=LMXBDM|10=218|
8=FIX.4.4|9=60|35=5|49=LMXBDM|56=jcorderop|34=366|52=20220627-13:18:59.808|10=225|
8=FIX.4.4|9=108|35=A|34=1|49=jcorderop|52=20220627-14:58:41.890|56=LMXBDM|98=0|108=30|141=Y|553=jcorderop|554=lmax4trading_|10=162|
8=FIX.4.4|9=76|35=A|49=LMXBDM|56=jcorderop|34=1|52=20220627-14:58:41.846|98=0|108=30|141=Y|10=202|
8=FIX.4.4|9=58|35=0|34=2|49=jcorderop|52=20220627-14:59:11.885|56=LMXBDM|10=117|
8=FIX.4.4|9=58|35=0|49=LMXBDM|56=jcorderop|34=2|52=20220627-14:59:11.846|10=114|
8=FIX.4.4|9=58|35=0|34=3|49=jcorderop|52=20220627-14:59:41.887|56=LMXBDM|10=123|
8=FIX.4.4|9=58|35=0|49=LMXBDM|56=jcorderop|34=3|52=20220627-14:59:41.847|10=119|
8=FIX.4.4|9=58|35=0|34=4|49=jcorderop|52=20220627-15:00:11.889|56=LMXBDM|10=110|
8=FIX.4.4|9=58|35=0|49=LMXBDM|56=jcorderop|34=4|52=20220627-15:00:11.848|10=105|
8=FIX.4.4|9=58|35=0|34=5|49=jcorderop|52=20220627-15:00:41.886|56=LMXBDM|10=111|
8=FIX.4.4|9=58|35=0|49=LMXBDM|56=jcorderop|34=5|52=20220627-15:00:41.848|10=109|
8=FIX.4.4|9=58|35=0|34=6|49=jcorderop|52=20220627-15:01:11.885|56=LMXBDM|10=109|
8=FIX.4.4|9=58|35=0|49=LMXBDM|56=jcorderop|34=6|52=20220627-15:01:11.849|10=109|
8=FIX.4.4|9=58|35=0|34=7|49=jcorderop|52=20220627-15:01:41.887|56=LMXBDM|10=115|
8=FIX.4.4|9=58|35=0|49=LMXBDM|56=jcorderop|34=7|52=20220627-15:01:41.849|10=113|
8=FIX.4.4|9=58|35=0|34=8|49=jcorderop|52=20220627-15:02:11.890|56=LMXBDM|10=108|
8=FIX.4.4|9=58|35=0|49=LMXBDM|56=jcorderop|34=8|52=20220627-15:02:11.850|10=104|
8=FIX.4.4|9=58|35=0|34=9|49=jcorderop|52=20220627-15:02:41.887|56=LMXBDM|10=118|
8=FIX.4.4|9=58|35=0|49=LMXBDM|56=jcorderop|34=9|52=20220627-15:02:41.850|10=108|
8=FIX.4.4|9=59|35=5|34=10|49=jcorderop|52=20220627-15:02:59.891|56=LMXBDM|10=168|
8=FIX.4.4|9=59|35=5|49=LMXBDM|56=jcorderop|34=10|52=20220627-15:02:59.813|10=162|
8=FIX.4.4|9=108|35=A|34=1|49=jcorderop|52=20220627-15:06:50.575|56=LMXBDM|98=0|108=30|141=Y|553=jcorderop|554=lmax4trading_|10=156|
8=FIX.4.4|9=76|35=A|49=LMXBDM|56=jcorderop|34=1|52=20220627-15:06:50.530|98=0|108=30|141=Y|10=186|
8=FIX.4.4|9=58|35=0|34=2|49=jcorderop|52=20220627-15:07:20.578|56=LMXBDM|10=110|
8=FIX.4.4|9=58|35=0|49=LMXBDM|56=jcorderop|34=2|52=20220627-15:07:20.531|10=099|
8=FIX.4.4|9=58|35=0|34=3|49=jcorderop|52=20220627-15:07:50.572|56=LMXBDM|10=108|
8=FIX.4.4|9=58|35=0|49=LMXBDM|56=jcorderop|34=3|52=20220627-15:07:50.531|10=103|
8=FIX.4.4|9=58|35=0|34=4|49=jcorderop|52=20220627-15:08:20.585|56=LMXBDM|10=111|
8=FIX.4.4|9=58|35=0|49=LMXBDM|56=jcorderop|34=4|52=20220627-15:08:20.532|10=103|
8=FIX.4.4|9=58|35=0|49=LMXBDM|56=jcorderop|34=5|52=20220627-15:08:50.533|10=108|
8=FIX.4.4|9=58|35=0|34=5|49=jcorderop|52=20220627-15:08:50.644|56=LMXBDM|10=111|
8=FIX.4.4|9=58|35=0|49=LMXBDM|56=jcorderop|34=6|52=20220627-15:09:20.533|10=107|
8=FIX.4.4|9=58|35=0|34=6|49=jcorderop|52=20220627-15:09:20.646|56=LMXBDM|10=112|
8=FIX.4.4|9=58|35=0|49=LMXBDM|56=jcorderop|34=7|52=20220627-15:09:50.535|10=113|
8=FIX.4.4|9=58|35=0|34=7|49=jcorderop|52=20220627-15:09:50.647|56=LMXBDM|10=117|
8=FIX.4.4|9=58|35=0|49=LMXBDM|56=jcorderop|34=8|52=20220627-15:10:20.535|10=103|
8=FIX.4.4|9=58|35=0|34=8|49=jcorderop|52=20220627-15:10:20.640|56=LMXBDM|10=100|
8=FIX.4.4|9=58|35=0|49=LMXBDM|56=jcorderop|34=9|52=20220627-15:10:50.536|10=108|
8=FIX.4.4|9=58|35=0|34=9|49=jcorderop|52=20220627-15:10:50.647|56=LMXBDM|10=111|
8=FIX.4.4|9=59|35=0|49=LMXBDM|56=jcorderop|34=10|52=20220627-15:11:20.536|10=147|
8=FIX.4.4|9=59|35=0|34=10|49=jcorderop|52=20220627-15:11:20.646|56=LMXBDM|10=149|
8=FIX.4.4|9=59|35=5|34=11|49=jcorderop|52=20220627-15:11:32.577|56=LMXBDM|10=161|
8=FIX.4.4|9=59|35=5|49=LMXBDM|56=jcorderop|34=11|52=20220627-15:11:32.498|10=163|
8=FIX.4.4|9=108|35=A|34=1|49=jcorderop|52=20220627-15:11:40.713|56=LMXBDM|98=0|108=30|141=Y|553=jcorderop|554=lmax4trading_|10=145|
8=FIX.4.4|9=76|35=A|49=LMXBDM|56=jcorderop|34=1|52=20220627-15:11:40.671|98=0|108=30|141=Y|10=187|
8=FIX.4.4|9=132|35=V|34=2|49=jcorderop|52=20220627-15:11:59.340|56=LMXBDM|262=100934|263=1|264=0|265=0|266=Y|146=1|48=100934|22=8|267=2|269=0|269=1|10=001|
8=FIX.4.4|9=172|35=W|49=LMXBDM|56=jcorderop|34=2|52=20220627-15:11:59.280|262=100934|48=100934|22=8|268=2|269=0|270=20707.22|271=4.9|272=20220627|273=15:11:58.775|269=1|270=20718.29|271=5|10=201|
8=FIX.4.4|9=172|35=W|49=LMXBDM|56=jcorderop|34=3|52=20220627-15:11:59.881|262=100934|48=100934|22=8|268=2|269=0|270=20710.22|271=4.9|272=20220627|273=15:11:59.870|269=1|270=20713.79|271=5|10=200|
8=FIX.4.4|9=170|35=W|49=LMXBDM|56=jcorderop|34=4|52=20220627-15:12:00.981|262=100934|48=100934|22=8|268=2|269=0|270=20710.72|271=5|272=20220627|273=15:12:00.892|269=1|270=20713.79|271=5|10=081|
8=FIX.4.4|9=170|35=W|49=LMXBDM|56=jcorderop|34=5|52=20220627-15:12:04.083|262=100934|48=100934|22=8|268=2|269=0|270=20710.01|271=5|272=20220627|273=15:12:04.069|269=1|270=20712.01|271=5|10=055|
8=FIX.4.4|9=170|35=W|49=LMXBDM|56=jcorderop|34=6|52=20220627-15:12:05.184|262=100934|48=100934|22=8|268=2|269=0|270=20712.01|271=5|272=20220627|273=15:12:05.128|269=1|270=20714.01|271=5|10=060|
8=FIX.4.4|9=170|35=W|49=LMXBDM|56=jcorderop|34=7|52=20220627-15:12:06.284|262=100934|48=100934|22=8|268=2|269=0|270=20712.26|271=5|272=20220627|273=15:12:06.188|269=1|270=20714.26|271=5|10=084|
8=FIX.4.4|9=170|35=W|49=LMXBDM|56=jcorderop|34=8|52=20220627-15:12:07.285|262=100934|48=100934|22=8|268=2|269=0|270=20710.51|271=5|272=20220627|273=15:12:07.247|269=1|270=20712.51|271=5|10=076|
8=FIX.4.4|9=170|35=W|49=LMXBDM|56=jcorderop|34=9|52=20220627-15:12:08.385|262=100934|48=100934|22=8|268=2|269=0|270=20707.72|271=5|272=20220627|273=15:12:08.305|269=1|270=20710.29|271=5|10=087|
8=FIX.4.4|9=171|35=W|49=LMXBDM|56=jcorderop|34=10|52=20220627-15:12:09.386|262=100934|48=100934|22=8|268=2|269=0|270=20707.22|271=5|272=20220627|273=15:12:09.364|269=1|270=20710.29|271=5|10=131|
8=FIX.4.4|9=171|35=W|49=LMXBDM|56=jcorderop|34=11|52=20220627-15:12:11.487|262=100934|48=100934|22=8|268=2|269=0|270=20708.72|271=5|272=20220627|273=15:12:11.481|269=1|270=20712.29|271=5|10=128|
8=FIX.4.4|9=171|35=W|49=LMXBDM|56=jcorderop|34=12|52=20220627-15:12:12.587|262=100934|48=100934|22=8|268=2|269=0|270=20707.22|271=5|272=20220627|273=15:12:12.539|269=1|270=20712.29|271=5|10=130|
8=FIX.4.4|9=171|35=W|49=LMXBDM|56=jcorderop|34=13|52=20220627-15:12:14.688|262=100934|48=100934|22=8|268=2|269=0|270=20705.26|271=5|272=20220627|273=15:12:14.657|269=1|270=20707.26|271=5|10=141|
8=FIX.4.4|9=132|35=V|34=3|49=jcorderop|52=20220627-15:12:14.835|56=LMXBDM|262=100934|263=2|264=0|265=0|266=Y|146=1|48=100934|22=8|267=2|269=0|269=1|10=004|
8=FIX.4.4|9=59|35=0|49=LMXBDM|56=jcorderop|34=14|52=20220627-15:12:44.689|10=167|
8=FIX.4.4|9=58|35=0|34=4|49=jcorderop|52=20220627-15:12:45.724|56=LMXBDM|10=108|
8=FIX.4.4|9=59|35=0|49=LMXBDM|56=jcorderop|34=15|52=20220627-15:13:14.690|10=158|
8=FIX.4.4|9=58|35=0|34=5|49=jcorderop|52=20220627-15:13:15.725|56=LMXBDM|10=108|
8=FIX.4.4|9=59|35=0|49=LMXBDM|56=jcorderop|34=16|52=20220627-15:13:44.691|10=163|
8=FIX.4.4|9=58|35=0|34=6|49=jcorderop|52=20220627-15:13:45.723|56=LMXBDM|10=110|
8=FIX.4.4|9=59|35=0|49=LMXBDM|56=jcorderop|34=17|52=20220627-15:14:14.691|10=162|
8=FIX.4.4|9=58|35=0|34=7|49=jcorderop|52=20220627-15:14:15.715|56=LMXBDM|10=110|
8=FIX.4.4|9=59|35=0|49=LMXBDM|56=jcorderop|34=18|52=20220627-15:14:44.691|10=166|
8=FIX.4.4|9=58|35=0|34=8|49=jcorderop|52=20220627-15:14:45.716|56=LMXBDM|10=115|
8=FIX.4.4|9=59|35=0|49=LMXBDM|56=jcorderop|34=19|52=20220627-15:15:14.692|10=166|
8=FIX.4.4|9=58|35=0|34=9|49=jcorderop|52=20220627-15:15:15.714|56=LMXBDM|10=112|
8=FIX.4.4|9=59|35=0|49=LMXBDM|56=jcorderop|34=20|52=20220627-15:15:44.693|10=162|
8=FIX.4.4|9=59|35=0|34=10|49=jcorderop|52=20220627-15:15:45.715|56=LMXBDM|10=157|
8=FIX.4.4|9=59|35=0|49=LMXBDM|56=jcorderop|34=21|52=20220627-15:16:14.694|10=162|
8=FIX.4.4|9=59|35=0|34=11|49=jcorderop|52=20220627-15:16:15.718|56=LMXBDM|10=159|
8=FIX.4.4|9=59|35=0|49=LMXBDM|56=jcorderop|34=22|52=20220627-15:16:44.695|10=167|
8=FIX.4.4|9=59|35=0|34=12|49=jcorderop|52=20220627-15:16:45.725|56=LMXBDM|10=161|
